{"contracts/OperationsRegistry.sol":{"OperationsRegistry":{"abi":[{"anonymous":false,"inputs":[{"indexed":true,"internalType":"uint256","name":"id","type":"uint256"},{"indexed":false,"internalType":"enum OperationsRegistry.ModuleType","name":"module","type":"uint8"},{"indexed":false,"internalType":"enum OperationsRegistry.Verdict","name":"verdict","type":"uint8"},{"indexed":false,"internalType":"uint8","name":"confidence","type":"uint8"},{"indexed":false,"internalType":"uint256","name":"timestamp","type":"uint256"}],"name":"DecisionLogged","type":"event"},{"anonymous":false,"inputs":[{"indexed":true,"internalType":"address","name":"operator","type":"address"},{"indexed":false,"internalType":"uint256","name":"newScore","type":"uint256"},{"indexed":false,"internalType":"bool","name":"increased","type":"bool"}],"name":"ReputationUpdated","type":"event"},{"anonymous":false,"inputs":[{"indexed":true,"internalType":"uint256","name":"slaId","type":"uint256"},{"indexed":false,"internalType":"address","name":"fulfiller","type":"address"},{"indexed":false,"internalType":"uint256","name":"hoursRemaining","type":"uint256"}],"name":"SLAFulfilled","type":"event"},{"anonymous":false,"inputs":[{"indexed":true,"internalType":"uint256","name":"slaId","type":"uint256"},{"indexed":true,"internalType":"uint256","name":"decisionId","type":"uint256"},{"indexed":false,"internalType":"uint256","name":"deadline","type":"uint256"},{"indexed":false,"internalType":"address","name":"operator","type":"address"}],"name":"SLAMinted","type":"event"},{"inputs":[{"internalType":"uint256","name":"","type":"uint256"}],"name":"decisions","outputs":[{"internalType":"bytes32","name":"inputHash","type":"bytes32"},{"internalType":"enum OperationsRegistry.ModuleType","name":"module","type":"uint8"},{"internalType":"enum OperationsRegistry.Verdict","name":"verdict","type":"uint8"},{"internalType":"uint8","name":"confidence","type":"uint8"},{"internalType":"bytes32","name":"advocateHash","type":"bytes32"},{"internalType":"bytes32","name":"skepticHash","type":"bytes32"},{"internalType":"uint256","name":"timestamp","type":"uint256"},{"internalType":"address","name":"operator","type":"address"},{"internalType":"bool","name":"slaCreated","type":"bool"}],"stateMutability":"view","type":"function"},{"inputs":[{"internalType":"uint256","name":"_slaId","type":"uint256"}],"name":"fulfillSLA","outputs":[],"stateMutability":"nonpayable","type":"function"},{"inputs":[{"internalType":"address","name":"","type":"address"}],"name":"fulfilledSLAs","outputs":[{"internalType":"uint256","name":"","type":"uint256"}],"stateMutability":"view","type":"function"},{"inputs":[{"internalType":"uint256","name":"id","type":"uint256"}],"name":"getDecision","outputs":[{"components":[{"internalType":"bytes32","name":"inputHash","type":"bytes32"},{"internalType":"enum OperationsRegistry.ModuleType","name":"module","type":"uint8"},{"internalType":"enum OperationsRegistry.Verdict","name":"verdict","type":"uint8"},{"internalType":"uint8","name":"confidence","type":"uint8"},{"internalType":"bytes32","name":"advocateHash","type":"bytes32"},{"internalType":"bytes32","name":"skepticHash","type":"bytes32"},{"internalType":"uint256","name":"timestamp","type":"uint256"},{"internalType":"address","name":"operator","type":"address"},{"internalType":"bool","name":"slaCreated","type":"bool"}],"internalType":"struct OperationsRegistry.Decision","name":"","type":"tuple"}],"stateMutability":"view","type":"function"},{"inputs":[{"internalType":"address","name":"operator","type":"address"}],"name":"getProfile","outputs":[{"internalType":"uint256","name":"score","type":"uint256"},{"internalType":"uint256","name":"total","type":"uint256"},{"internalType":"uint256","name":"fulfilled","type":"uint256"},{"internalType":"uint256","name":"fulfillRate","type":"uint256"}],"stateMutability":"view","type":"function"},{"inputs":[{"internalType":"uint256","name":"id","type":"uint256"}],"name":"getSLA","outputs":[{"components":[{"internalType":"uint256","name":"decisionId","type":"uint256"},{"internalType":"uint256","name":"deadline","type":"uint256"},{"internalType":"bool","name":"fulfilled","type":"bool"},{"internalType":"uint256","name":"fulfilledAt","type":"uint256"}],"internalType":"struct OperationsRegistry.SLACommitment","name":"","type":"tuple"}],"stateMutability":"view","type":"function"},{"inputs":[{"internalType":"bytes32","name":"_inputHash","type":"bytes32"},{"internalType":"enum OperationsRegistry.ModuleType","name":"_module","type":"uint8"},{"internalType":"enum OperationsRegistry.Verdict","name":"_verdict","type":"uint8"},{"internalType":"uint8","name":"_confidence","type":"uint8"},{"internalType":"bytes32","name":"_advocateHash","type":"bytes32"},{"internalType":"bytes32","name":"_skepticHash","type":"bytes32"}],"name":"logDecision","outputs":[{"internalType":"uint256","name":"decisionId","type":"uint256"}],"stateMutability":"nonpayable","type":"function"},{"inputs":[{"internalType":"address","name":"","type":"address"}],"name":"opsScore","outputs":[{"internalType":"uint256","name":"","type":"uint256"}],"stateMutability":"view","type":"function"},{"inputs":[{"internalType":"uint256","name":"","type":"uint256"}],"name":"slaCommitments","outputs":[{"internalType":"uint256","name":"decisionId","type":"uint256"},{"internalType":"uint256","name":"deadline","type":"uint256"},{"internalType":"bool","name":"fulfilled","type":"bool"},{"internalType":"uint256","name":"fulfilledAt","type":"uint256"}],"stateMutability":"view","type":"function"},{"inputs":[],"name":"totalDecisions","outputs":[{"internalType":"uint256","name":"","type":"uint256"}],"stateMutability":"view","type":"function"},{"inputs":[],"name":"totalSLACommitments","outputs":[{"internalType":"uint256","name":"","type":"uint256"}],"stateMutability":"view","type":"function"},{"inputs":[{"internalType":"address","name":"","type":"address"}],"name":"totalSLAs","outputs":[{"internalType":"uint256","name":"","type":"uint256"}],"stateMutability":"view","type":"function"}],"evm":{"bytecode":{"linkReferences":{},"object":"608060405234801561001057600080fd5b50610d72806100206000396000f3fe608060405234801561001057600080fd5b50600436106100b45760003560e01c8063beed071f11610071578063beed071f1461018c578063bf7792d2146101ac578063cdc6c857146101f4578063e35e050414610214578063e83e4d6314610227578063f54829011461023c57600080fd5b80630c96a61a146100b95780630f53a470146100d057806364d1e7ec14610103578063af7548481461010b578063b829df821461012b578063bee3b22914610153575b600080fd5b6000545b6040519081526020015b60405180910390f35b6100e36100de366004610a6d565b61025c565b6040805194855260208501939093529183015260608201526080016100c7565b6001546100bd565b61011e610119366004610a9d565b6102b7565b6040516100c79190610aed565b61013e610139366004610a9d565b61040e565b6040516100c799989796959493929190610b7e565b610166610161366004610a9d565b61047d565b6040805194855260208501939093529015159183019190915260608201526080016100c7565b6100bd61019a366004610a6d565b60036020526000908152604090205481565b6101bf6101ba366004610a9d565b6104ba565b6040516100c7919081518152602080830151908201526040808301511515908201526060918201519181019190915260800190565b6100bd610202366004610a6d565b60026020526000908152604090205481565b6100bd610222366004610bf0565b610546565b61023a610235366004610a9d565b61075e565b005b6100bd61024a366004610a6d565b60046020526000908152604090205481565b6001600160a01b03811660009081526002602090815260408083205460038352818420546004909352908320549092826102975760006102ae565b826102a483612710610c71565b6102ae9190610c8e565b90509193509193565b6103076040805161012081019091526000808252602082019081526020016000815260006020820181905260408201819052606082018190526080820181905260a0820181905260c09091015290565b6000828154811061031a5761031a610cb0565b906000526020600020906006020160405180610120016040529081600082015481526020016001820160009054906101000a900460ff16600281111561036257610362610ab6565b600281111561037357610373610ab6565b81526020016001820160019054906101000a900460ff16600281111561039b5761039b610ab6565b60028111156103ac576103ac610ab6565b8152600182015460ff62010000909104811660208301526002830154604083015260038301546060830152600483015460808301526005909201546001600160a01b03811660a0830152600160a01b9004909116151560c09091015292915050565b6000818154811061041e57600080fd5b600091825260209091206006909102018054600182015460028301546003840154600485015460059095015493955060ff8084169561010085048216956201000090950482169490916001600160a01b03821691600160a01b90041689565b6001818154811061048d57600080fd5b600091825260209091206004909102018054600182015460028301546003909301549193509160ff169084565b6104e760405180608001604052806000815260200160008152602001600015158152602001600081525090565b600182815481106104fa576104fa610cb0565b600091825260209182902060408051608081018252600490930290910180548352600181015493830193909352600283015460ff16151590820152600390910154606082015292915050565b60008060405180610120016040528089815260200188600281111561056d5761056d610ab6565b815260200187600281111561058457610584610ab6565b815260ff871660208083019190915260408201879052606082018690524260808301523360a0830152600060c09092018290528354600181810186559483529181902083516006909302019182558201518184018054939492939192909160ff1916908360028111156105f9576105f9610ab6565b0217905550604082015160018201805461ff00191661010083600281111561062357610623610ab6565b021790555060608201516001808301805460ff909316620100000262ff000019909316929092179091556080830151600283015560a0830151600383015560c0830151600483015560e083015160059092018054610100909401511515600160a01b026001600160a81b03199094166001600160a01b03909316929092179290921790556000546106b49190610cc6565b9050807f809e193a15b49354e266a4a7e34fe9cfcfc126af57622333b1c4ddaba6579da3878787426040516106ec9493929190610cd9565b60405180910390a2600085600281111561070857610708610ab6565b03610754576107168161090b565b60016000828154811061072b5761072b610cb0565b906000526020600020906006020160050160146101000a81548160ff0219169083151502179055505b9695505050505050565b60006001828154811061077357610773610cb0565b60009182526020909120600490910201600281015490915060ff16156107d35760405162461bcd60e51b8152602060048201526011602482015270105b1c9958591e48199d5b199a5b1b1959607a1b604482015260640160405180910390fd5b60028101805460ff1916600117905542600382015533600090815260046020526040812080549161080383610d10565b90915550506001810154600a9060009042101561085057610e1042846001015461082d9190610cc6565b6108379190610c8e565b9050600c8111156108505761084d600583610d29565b91505b3360009081526002602052604081205461086b908490610d29565b90506103e881111561087c57506103e85b336000818152600260209081526040918290208490558151928352820184905286917fa4a7e91b7ba2b52745eabce1cd032afb20ea7e68814d1a17bd7697875af837a7910160405180910390a2604080518281526001602082015233917fdb3885afbba6debf9c1bda35746ffcd3e3c749b3742be7c9a0904981b5befb99910160405180910390a25050505050565b600061091a4262015180610d29565b604080516080810182528481526020810183815260009282018381526060830184815260018054808201825581875294517fb10e2d527612073b26eecdfd717e6a320cf44b4afac2b0732d9fcbe2b7fa0cf660049096029586015592517fb10e2d527612073b26eecdfd717e6a320cf44b4afac2b0732d9fcbe2b7fa0cf785015590517fb10e2d527612073b26eecdfd717e6a320cf44b4afac2b0732d9fcbe2b7fa0cf88401805460ff1916911515919091179055517fb10e2d527612073b26eecdfd717e6a320cf44b4afac2b0732d9fcbe2b7fa0cf99092019190915580549293509091610a099190610cc6565b336000908152600360205260408120805492935090610a2783610d10565b909155505060408051838152336020820152849183917fd10e139cb66868d34703c86ce0c8d254a578f1bb9ba2992ca5cdad3c3e2a8e71910160405180910390a3505050565b600060208284031215610a7f57600080fd5b81356001600160a01b0381168114610a9657600080fd5b9392505050565b600060208284031215610aaf57600080fd5b5035919050565b634e487b7160e01b600052602160045260246000fd5b60038110610aea57634e487b7160e01b600052602160045260246000fd5b50565b815181526020820151610120820190610b0581610acc565b60208301526040830151610b1881610acc565b806040840152506060830151610b33606084018260ff169052565b506080830151608083015260a083015160a083015260c083015160c083015260e0830151610b6c60e08401826001600160a01b03169052565b50610100928301511515919092015290565b8981526101208101610b8f8a610acc565b896020830152610b9e89610acc565b604082019890985260ff969096166060870152608086019490945260a085019290925260c08401526001600160a01b031660e083015215156101009091015292915050565b60038110610aea57600080fd5b60008060008060008060c08789031215610c0957600080fd5b863595506020870135610c1b81610be3565b94506040870135610c2b81610be3565b9350606087013560ff81168114610c4157600080fd5b9598949750929560808101359460a0909101359350915050565b634e487b7160e01b600052601160045260246000fd5b8082028115828204841417610c8857610c88610c5b565b92915050565b600082610cab57634e487b7160e01b600052601260045260246000fd5b500490565b634e487b7160e01b600052603260045260246000fd5b81810381811115610c8857610c88610c5b565b60808101610ce686610acc565b858252610cf285610acc565b84602083015260ff8416604083015282606083015295945050505050565b600060018201610d2257610d22610c5b565b5060010190565b80820180821115610c8857610c88610c5b56fea264697066735822122065d2242a24a36836c6c3f04bc266d68248f458ca88b39502fbd004843c0f790b64736f6c63430008140033","opcodes":"PUSH1 0x80 PUSH1 0x40 MSTORE CALLVALUE DUP1 ISZERO PUSH2 0x10 JUMPI PUSH1 0x0 DUP1 REVERT JUMPDEST POP PUSH2 0xD72 DUP1 PUSH2 0x20 PUSH1 0x0 CODECOPY PUSH1 0x0 RETURN INVALID PUSH1 0x80 PUSH1 0x40 MSTORE CALLVALUE DUP1 ISZERO PUSH2 0x10 JUMPI PUSH1 0x0 DUP1 REVERT JUMPDEST POP PUSH1 0x4 CALLDATASIZE LT PUSH2 0xB4 JUMPI PUSH1 0x0 CALLDATALOAD PUSH1 0xE0 SHR DUP1 PUSH4 0xBEED071F GT PUSH2 0x71 JUMPI DUP1 PUSH4 0xBEED071F EQ PUSH2 0x18C JUMPI DUP1 PUSH4 0xBF7792D2 EQ PUSH2 0x1AC JUMPI DUP1 PUSH4 0xCDC6C857 EQ PUSH2 0x1F4 JUMPI DUP1 PUSH4 0xE35E0504 EQ PUSH2 0x214 JUMPI DUP1 PUSH4 0xE83E4D63 EQ PUSH2 0x227 JUMPI DUP1 PUSH4 0xF5482901 EQ PUSH2 0x23C JUMPI PUSH1 0x0 DUP1 REVERT JUMPDEST DUP1 PUSH4 0xC96A61A EQ PUSH2 0xB9 JUMPI DUP1 PUSH4 0xF53A470 EQ PUSH2 0xD0 JUMPI DUP1 PUSH4 0x64D1E7EC EQ PUSH2 0x103 JUMPI DUP1 PUSH4 0xAF754848 EQ PUSH2 0x10B JUMPI DUP1 PUSH4 0xB829DF82 EQ PUSH2 0x12B JUMPI DUP1 PUSH4 0xBEE3B229 EQ PUSH2 0x153 JUMPI JUMPDEST PUSH1 0x0 DUP1 REVERT JUMPDEST PUSH1 0x0 SLOAD JUMPDEST PUSH1 0x40 MLOAD SWAP1 DUP2 MSTORE PUSH1 0x20 ADD JUMPDEST PUSH1 0x40 MLOAD DUP1 SWAP2 SUB SWAP1 RETURN JUMPDEST PUSH2 0xE3 PUSH2 0xDE CALLDATASIZE PUSH1 0x4 PUSH2 0xA6D JUMP JUMPDEST PUSH2 0x25C JUMP JUMPDEST PUSH1 0x40 DUP1 MLOAD SWAP5 DUP6 MSTORE PUSH1 0x20 DUP6 ADD SWAP4 SWAP1 SWAP4 MSTORE SWAP2 DUP4 ADD MSTORE PUSH1 0x60 DUP3 ADD MSTORE PUSH1 0x80 ADD PUSH2 0xC7 JUMP JUMPDEST PUSH1 0x1 SLOAD PUSH2 0xBD JUMP JUMPDEST PUSH2 0x11E PUSH2 0x119 CALLDATASIZE PUSH1 0x4 PUSH2 0xA9D JUMP JUMPDEST PUSH2 0x2B7 JUMP JUMPDEST PUSH1 0x40 MLOAD PUSH2 0xC7 SWAP2 SWAP1 PUSH2 0xAED JUMP JUMPDEST PUSH2 0x13E PUSH2 0x139 CALLDATASIZE PUSH1 0x4 PUSH2 0xA9D JUMP JUMPDEST PUSH2 0x40E JUMP JUMPDEST PUSH1 0x40 MLOAD PUSH2 0xC7 SWAP10 SWAP9 SWAP8 SWAP7 SWAP6 SWAP5 SWAP4 SWAP3 SWAP2 SWAP1 PUSH2 0xB7E JUMP JUMPDEST PUSH2 0x166 PUSH2 0x161 CALLDATASIZE PUSH1 0x4 PUSH2 0xA9D JUMP JUMPDEST PUSH2 0x47D JUMP JUMPDEST PUSH1 0x40 DUP1 MLOAD SWAP5 DUP6 MSTORE PUSH1 0x20 DUP6 ADD SWAP4 SWAP1 SWAP4 MSTORE SWAP1 ISZERO ISZERO SWAP2 DUP4 ADD SWAP2 SWAP1 SWAP2 MSTORE PUSH1 0x60 DUP3 ADD MSTORE PUSH1 0x80 ADD PUSH2 0xC7 JUMP JUMPDEST PUSH2 0xBD PUSH2 0x19A CALLDATASIZE PUSH1 0x4 PUSH2 0xA6D JUMP JUMPDEST PUSH1 0x3 PUSH1 0x20 MSTORE PUSH1 0x0 SWAP1 DUP2 MSTORE PUSH1 0x40 SWAP1 KECCAK256 SLOAD DUP2 JUMP JUMPDEST PUSH2 0x1BF PUSH2 0x1BA CALLDATASIZE PUSH1 0x4 PUSH2 0xA9D JUMP JUMPDEST PUSH2 0x4BA JUMP JUMPDEST PUSH1 0x40 MLOAD PUSH2 0xC7 SWAP2 SWAP1 DUP2 MLOAD DUP2 MSTORE PUSH1 0x20 DUP1 DUP4 ADD MLOAD SWAP1 DUP3 ADD MSTORE PUSH1 0x40 DUP1 DUP4 ADD MLOAD ISZERO ISZERO SWAP1 DUP3 ADD MSTORE PUSH1 0x60 SWAP2 DUP3 ADD MLOAD SWAP2 DUP2 ADD SWAP2 SWAP1 SWAP2 MSTORE PUSH1 0x80 ADD SWAP1 JUMP JUMPDEST PUSH2 0xBD PUSH2 0x202 CALLDATASIZE PUSH1 0x4 PUSH2 0xA6D JUMP JUMPDEST PUSH1 0x2 PUSH1 0x20 MSTORE PUSH1 0x0 SWAP1 DUP2 MSTORE PUSH1 0x40 SWAP1 KECCAK256 SLOAD DUP2 JUMP JUMPDEST PUSH2 0xBD PUSH2 0x222 CALLDATASIZE PUSH1 0x4 PUSH2 0xBF0 JUMP JUMPDEST PUSH2 0x546 JUMP JUMPDEST PUSH2 0x23A PUSH2 0x235 CALLDATASIZE PUSH1 0x4 PUSH2 0xA9D JUMP JUMPDEST PUSH2 0x75E JUMP JUMPDEST STOP JUMPDEST PUSH2 0xBD PUSH2 0x24A CALLDATASIZE PUSH1 0x4 PUSH2 0xA6D JUMP JUMPDEST PUSH1 0x4 PUSH1 0x20 MSTORE PUSH1 0x0 SWAP1 DUP2 MSTORE PUSH1 0x40 SWAP1 KECCAK256 SLOAD DUP2 JUMP JUMPDEST PUSH1 0x1 PUSH1 0x1 PUSH1 0xA0 SHL SUB DUP2 AND PUSH1 0x0 SWAP1 DUP2 MSTORE PUSH1 0x2 PUSH1 0x20 SWAP1 DUP2 MSTORE PUSH1 0x40 DUP1 DUP4 KECCAK256 SLOAD PUSH1 0x3 DUP4 MSTORE DUP2 DUP5 KECCAK256 SLOAD PUSH1 0x4 SWAP1 SWAP4 MSTORE SWAP1 DUP4 KECCAK256 SLOAD SWAP1 SWAP3 DUP3 PUSH2 0x297 JUMPI PUSH1 0x0 PUSH2 0x2AE JUMP JUMPDEST DUP3 PUSH2 0x2A4 DUP4 PUSH2 0x2710 PUSH2 0xC71 JUMP JUMPDEST PUSH2 0x2AE SWAP2 SWAP1 PUSH2 0xC8E JUMP JUMPDEST SWAP1 POP SWAP2 SWAP4 POP SWAP2 SWAP4 JUMP JUMPDEST PUSH2 0x307 PUSH1 0x40 DUP1 MLOAD PUSH2 0x120 DUP2 ADD SWAP1 SWAP2 MSTORE PUSH1 0x0 DUP1 DUP3 MSTORE PUSH1 0x20 DUP3 ADD SWAP1 DUP2 MSTORE PUSH1 0x20 ADD PUSH1 0x0 DUP2 MSTORE PUSH1 0x0 PUSH1 0x20 DUP3 ADD DUP2 SWAP1 MSTORE PUSH1 0x40 DUP3 ADD DUP2 SWAP1 MSTORE PUSH1 0x60 DUP3 ADD DUP2 SWAP1 MSTORE PUSH1 0x80 DUP3 ADD DUP2 SWAP1 MSTORE PUSH1 0xA0 DUP3 ADD DUP2 SWAP1 MSTORE PUSH1 0xC0 SWAP1 SWAP2 ADD MSTORE SWAP1 JUMP JUMPDEST PUSH1 0x0 DUP3 DUP2 SLOAD DUP2 LT PUSH2 0x31A JUMPI PUSH2 0x31A PUSH2 0xCB0 JUMP JUMPDEST SWAP1 PUSH1 0x0 MSTORE PUSH1 0x20 PUSH1 0x0 KECCAK256 SWAP1 PUSH1 0x6 MUL ADD PUSH1 0x40 MLOAD DUP1 PUSH2 0x120 ADD PUSH1 0x40 MSTORE SWAP1 DUP2 PUSH1 0x0 DUP3 ADD SLOAD DUP2 MSTORE PUSH1 0x20 ADD PUSH1 0x1 DUP3 ADD PUSH1 0x0 SWAP1 SLOAD SWAP1 PUSH2 0x100 EXP SWAP1 DIV PUSH1 0xFF AND PUSH1 0x2 DUP2 GT ISZERO PUSH2 0x362 JUMPI PUSH2 0x362 PUSH2 0xAB6 JUMP JUMPDEST PUSH1 0x2 DUP2 GT ISZERO PUSH2 0x373 JUMPI PUSH2 0x373 PUSH2 0xAB6 JUMP JUMPDEST DUP2 MSTORE PUSH1 0x20 ADD PUSH1 0x1 DUP3 ADD PUSH1 0x1 SWAP1 SLOAD SWAP1 PUSH2 0x100 EXP SWAP1 DIV PUSH1 0xFF AND PUSH1 0x2 DUP2 GT ISZERO PUSH2 0x39B JUMPI PUSH2 0x39B PUSH2 0xAB6 JUMP JUMPDEST PUSH1 0x2 DUP2 GT ISZERO PUSH2 0x3AC JUMPI PUSH2 0x3AC PUSH2 0xAB6 JUMP JUMPDEST DUP2 MSTORE PUSH1 0x1 DUP3 ADD SLOAD PUSH1 0xFF PUSH3 0x10000 SWAP1 SWAP2 DIV DUP2 AND PUSH1 0x20 DUP4 ADD MSTORE PUSH1 0x2 DUP4 ADD SLOAD PUSH1 0x40 DUP4 ADD MSTORE PUSH1 0x3 DUP4 ADD SLOAD PUSH1 0x60 DUP4 ADD MSTORE PUSH1 0x4 DUP4 ADD SLOAD PUSH1 0x80 DUP4 ADD MSTORE PUSH1 0x5 SWAP1 SWAP3 ADD SLOAD PUSH1 0x1 PUSH1 0x1 PUSH1 0xA0 SHL SUB DUP2 AND PUSH1 0xA0 DUP4 ADD MSTORE PUSH1 0x1 PUSH1 0xA0 SHL SWAP1 DIV SWAP1 SWAP2 AND ISZERO ISZERO PUSH1 0xC0 SWAP1 SWAP2 ADD MSTORE SWAP3 SWAP2 POP POP JUMP JUMPDEST PUSH1 0x0 DUP2 DUP2 SLOAD DUP2 LT PUSH2 0x41E JUMPI PUSH1 0x0 DUP1 REVERT JUMPDEST PUSH1 0x0 SWAP2 DUP3 MSTORE PUSH1 0x20 SWAP1 SWAP2 KECCAK256 PUSH1 0x6 SWAP1 SWAP2 MUL ADD DUP1 SLOAD PUSH1 0x1 DUP3 ADD SLOAD PUSH1 0x2 DUP4 ADD SLOAD PUSH1 0x3 DUP5 ADD SLOAD PUSH1 0x4 DUP6 ADD SLOAD PUSH1 0x5 SWAP1 SWAP6 ADD SLOAD SWAP4 SWAP6 POP PUSH1 0xFF DUP1 DUP5 AND SWAP6 PUSH2 0x100 DUP6 DIV DUP3 AND SWAP6 PUSH3 0x10000 SWAP1 SWAP6 DIV DUP3 AND SWAP5 SWAP1 SWAP2 PUSH1 0x1 PUSH1 0x1 PUSH1 0xA0 SHL SUB DUP3 AND SWAP2 PUSH1 0x1 PUSH1 0xA0 SHL SWAP1 DIV AND DUP10 JUMP JUMPDEST PUSH1 0x1 DUP2 DUP2 SLOAD DUP2 LT PUSH2 0x48D JUMPI PUSH1 0x0 DUP1 REVERT JUMPDEST PUSH1 0x0 SWAP2 DUP3 MSTORE PUSH1 0x20 SWAP1 SWAP2 KECCAK256 PUSH1 0x4 SWAP1 SWAP2 MUL ADD DUP1 SLOAD PUSH1 0x1 DUP3 ADD SLOAD PUSH1 0x2 DUP4 ADD SLOAD PUSH1 0x3 SWAP1 SWAP4 ADD SLOAD SWAP2 SWAP4 POP SWAP2 PUSH1 0xFF AND SWAP1 DUP5 JUMP JUMPDEST PUSH2 0x4E7 PUSH1 0x40 MLOAD DUP1 PUSH1 0x80 ADD PUSH1 0x40 MSTORE DUP1 PUSH1 0x0 DUP2 MSTORE PUSH1 0x20 ADD PUSH1 0x0 DUP2 MSTORE PUSH1 0x20 ADD PUSH1 0x0 ISZERO ISZERO DUP2 MSTORE PUSH1 0x20 ADD PUSH1 0x0 DUP2 MSTORE POP SWAP1 JUMP JUMPDEST PUSH1 0x1 DUP3 DUP2 SLOAD DUP2 LT PUSH2 0x4FA JUMPI PUSH2 0x4FA PUSH2 0xCB0 JUMP JUMPDEST PUSH1 0x0 SWAP2 DUP3 MSTORE PUSH1 0x20 SWAP2 DUP3 SWAP1 KECCAK256 PUSH1 0x40 DUP1 MLOAD PUSH1 0x80 DUP2 ADD DUP3 MSTORE PUSH1 0x4 SWAP1 SWAP4 MUL SWAP1 SWAP2 ADD DUP1 SLOAD DUP4 MSTORE PUSH1 0x1 DUP2 ADD SLOAD SWAP4 DUP4 ADD SWAP4 SWAP1 SWAP4 MSTORE PUSH1 0x2 DUP4 ADD SLOAD PUSH1 0xFF AND ISZERO ISZERO SWAP1 DUP3 ADD MSTORE PUSH1 0x3 SWAP1 SWAP2 ADD SLOAD PUSH1 0x60 DUP3 ADD MSTORE SWAP3 SWAP2 POP POP JUMP JUMPDEST PUSH1 0x0 DUP1 PUSH1 0x40 MLOAD DUP1 PUSH2 0x120 ADD PUSH1 0x40 MSTORE DUP1 DUP10 DUP2 MSTORE PUSH1 0x20 ADD DUP9 PUSH1 0x2 DUP2 GT ISZERO PUSH2 0x56D JUMPI PUSH2 0x56D PUSH2 0xAB6 JUMP JUMPDEST DUP2 MSTORE PUSH1 0x20 ADD DUP8 PUSH1 0x2 DUP2 GT ISZERO PUSH2 0x584 JUMPI PUSH2 0x584 PUSH2 0xAB6 JUMP JUMPDEST DUP2 MSTORE PUSH1 0xFF DUP8 AND PUSH1 0x20 DUP1 DUP4 ADD SWAP2 SWAP1 SWAP2 MSTORE PUSH1 0x40 DUP3 ADD DUP8 SWAP1 MSTORE PUSH1 0x60 DUP3 ADD DUP7 SWAP1 MSTORE TIMESTAMP PUSH1 0x80 DUP4 ADD MSTORE CALLER PUSH1 0xA0 DUP4 ADD MSTORE PUSH1 0x0 PUSH1 0xC0 SWAP1 SWAP3 ADD DUP3 SWAP1 MSTORE DUP4 SLOAD PUSH1 0x1 DUP2 DUP2 ADD DUP7 SSTORE SWAP5 DUP4 MSTORE SWAP2 DUP2 SWAP1 KECCAK256 DUP4 MLOAD PUSH1 0x6 SWAP1 SWAP4 MUL ADD SWAP2 DUP3 SSTORE DUP3 ADD MLOAD DUP2 DUP5 ADD DUP1 SLOAD SWAP4 SWAP5 SWAP3 SWAP4 SWAP2 SWAP3 SWAP1 SWAP2 PUSH1 0xFF NOT AND SWAP1 DUP4 PUSH1 0x2 DUP2 GT ISZERO PUSH2 0x5F9 JUMPI PUSH2 0x5F9 PUSH2 0xAB6 JUMP JUMPDEST MUL OR SWAP1 SSTORE POP PUSH1 0x40 DUP3 ADD MLOAD PUSH1 0x1 DUP3 ADD DUP1 SLOAD PUSH2 0xFF00 NOT AND PUSH2 0x100 DUP4 PUSH1 0x2 DUP2 GT ISZERO PUSH2 0x623 JUMPI PUSH2 0x623 PUSH2 0xAB6 JUMP JUMPDEST MUL OR SWAP1 SSTORE POP PUSH1 0x60 DUP3 ADD MLOAD PUSH1 0x1 DUP1 DUP4 ADD DUP1 SLOAD PUSH1 0xFF SWAP1 SWAP4 AND PUSH3 0x10000 MUL PUSH3 0xFF0000 NOT SWAP1 SWAP4 AND SWAP3 SWAP1 SWAP3 OR SWAP1 SWAP2 SSTORE PUSH1 0x80 DUP4 ADD MLOAD PUSH1 0x2 DUP4 ADD SSTORE PUSH1 0xA0 DUP4 ADD MLOAD PUSH1 0x3 DUP4 ADD SSTORE PUSH1 0xC0 DUP4 ADD MLOAD PUSH1 0x4 DUP4 ADD SSTORE PUSH1 0xE0 DUP4 ADD MLOAD PUSH1 0x5 SWAP1 SWAP3 ADD DUP1 SLOAD PUSH2 0x100 SWAP1 SWAP5 ADD MLOAD ISZERO ISZERO PUSH1 0x1 PUSH1 0xA0 SHL MUL PUSH1 0x1 PUSH1 0x1 PUSH1 0xA8 SHL SUB NOT SWAP1 SWAP5 AND PUSH1 0x1 PUSH1 0x1 PUSH1 0xA0 SHL SUB SWAP1 SWAP4 AND SWAP3 SWAP1 SWAP3 OR SWAP3 SWAP1 SWAP3 OR SWAP1 SSTORE PUSH1 0x0 SLOAD PUSH2 0x6B4 SWAP2 SWAP1 PUSH2 0xCC6 JUMP JUMPDEST SWAP1 POP DUP1 PUSH32 0x809E193A15B49354E266A4A7E34FE9CFCFC126AF57622333B1C4DDABA6579DA3 DUP8 DUP8 DUP8 TIMESTAMP PUSH1 0x40 MLOAD PUSH2 0x6EC SWAP5 SWAP4 SWAP3 SWAP2 SWAP1 PUSH2 0xCD9 JUMP JUMPDEST PUSH1 0x40 MLOAD DUP1 SWAP2 SUB SWAP1 LOG2 PUSH1 0x0 DUP6 PUSH1 0x2 DUP2 GT ISZERO PUSH2 0x708 JUMPI PUSH2 0x708 PUSH2 0xAB6 JUMP JUMPDEST SUB PUSH2 0x754 JUMPI PUSH2 0x716 DUP2 PUSH2 0x90B JUMP JUMPDEST PUSH1 0x1 PUSH1 0x0 DUP3 DUP2 SLOAD DUP2 LT PUSH2 0x72B JUMPI PUSH2 0x72B PUSH2 0xCB0 JUMP JUMPDEST SWAP1 PUSH1 0x0 MSTORE PUSH1 0x20 PUSH1 0x0 KECCAK256 SWAP1 PUSH1 0x6 MUL ADD PUSH1 0x5 ADD PUSH1 0x14 PUSH2 0x100 EXP DUP2 SLOAD DUP2 PUSH1 0xFF MUL NOT AND SWAP1 DUP4 ISZERO ISZERO MUL OR SWAP1 SSTORE POP JUMPDEST SWAP7 SWAP6 POP POP POP POP POP POP JUMP JUMPDEST PUSH1 0x0 PUSH1 0x1 DUP3 DUP2 SLOAD DUP2 LT PUSH2 0x773 JUMPI PUSH2 0x773 PUSH2 0xCB0 JUMP JUMPDEST PUSH1 0x0 SWAP2 DUP3 MSTORE PUSH1 0x20 SWAP1 SWAP2 KECCAK256 PUSH1 0x4 SWAP1 SWAP2 MUL ADD PUSH1 0x2 DUP2 ADD SLOAD SWAP1 SWAP2 POP PUSH1 0xFF AND ISZERO PUSH2 0x7D3 JUMPI PUSH1 0x40 MLOAD PUSH3 0x461BCD PUSH1 0xE5 SHL DUP2 MSTORE PUSH1 0x20 PUSH1 0x4 DUP3 ADD MSTORE PUSH1 0x11 PUSH1 0x24 DUP3 ADD MSTORE PUSH17 0x105B1C9958591E48199D5B199A5B1B1959 PUSH1 0x7A SHL PUSH1 0x44 DUP3 ADD MSTORE PUSH1 0x64 ADD PUSH1 0x40 MLOAD DUP1 SWAP2 SUB SWAP1 REVERT JUMPDEST PUSH1 0x2 DUP2 ADD DUP1 SLOAD PUSH1 0xFF NOT AND PUSH1 0x1 OR SWAP1 SSTORE TIMESTAMP PUSH1 0x3 DUP3 ADD SSTORE CALLER PUSH1 0x0 SWAP1 DUP2 MSTORE PUSH1 0x4 PUSH1 0x20 MSTORE PUSH1 0x40 DUP2 KECCAK256 DUP1 SLOAD SWAP2 PUSH2 0x803 DUP4 PUSH2 0xD10 JUMP JUMPDEST SWAP1 SWAP2 SSTORE POP POP PUSH1 0x1 DUP2 ADD SLOAD PUSH1 0xA SWAP1 PUSH1 0x0 SWAP1 TIMESTAMP LT ISZERO PUSH2 0x850 JUMPI PUSH2 0xE10 TIMESTAMP DUP5 PUSH1 0x1 ADD SLOAD PUSH2 0x82D SWAP2 SWAP1 PUSH2 0xCC6 JUMP JUMPDEST PUSH2 0x837 SWAP2 SWAP1 PUSH2 0xC8E JUMP JUMPDEST SWAP1 POP PUSH1 0xC DUP2 GT ISZERO PUSH2 0x850 JUMPI PUSH2 0x84D PUSH1 0x5 DUP4 PUSH2 0xD29 JUMP JUMPDEST SWAP2 POP JUMPDEST CALLER PUSH1 0x0 SWAP1 DUP2 MSTORE PUSH1 0x2 PUSH1 0x20 MSTORE PUSH1 0x40 DUP2 KECCAK256 SLOAD PUSH2 0x86B SWAP1 DUP5 SWAP1 PUSH2 0xD29 JUMP JUMPDEST SWAP1 POP PUSH2 0x3E8 DUP2 GT ISZERO PUSH2 0x87C JUMPI POP PUSH2 0x3E8 JUMPDEST CALLER PUSH1 0x0 DUP2 DUP2 MSTORE PUSH1 0x2 PUSH1 0x20 SWAP1 DUP2 MSTORE PUSH1 0x40 SWAP2 DUP3 SWAP1 KECCAK256 DUP5 SWAP1 SSTORE DUP2 MLOAD SWAP3 DUP4 MSTORE DUP3 ADD DUP5 SWAP1 MSTORE DUP7 SWAP2 PUSH32 0xA4A7E91B7BA2B52745EABCE1CD032AFB20EA7E68814D1A17BD7697875AF837A7 SWAP2 ADD PUSH1 0x40 MLOAD DUP1 SWAP2 SUB SWAP1 LOG2 PUSH1 0x40 DUP1 MLOAD DUP3 DUP2 MSTORE PUSH1 0x1 PUSH1 0x20 DUP3 ADD MSTORE CALLER SWAP2 PUSH32 0xDB3885AFBBA6DEBF9C1BDA35746FFCD3E3C749B3742BE7C9A0904981B5BEFB99 SWAP2 ADD PUSH1 0x40 MLOAD DUP1 SWAP2 SUB SWAP1 LOG2 POP POP POP POP POP JUMP JUMPDEST PUSH1 0x0 PUSH2 0x91A TIMESTAMP PUSH3 0x15180 PUSH2 0xD29 JUMP JUMPDEST PUSH1 0x40 DUP1 MLOAD PUSH1 0x80 DUP2 ADD DUP3 MSTORE DUP5 DUP2 MSTORE PUSH1 0x20 DUP2 ADD DUP4 DUP2 MSTORE PUSH1 0x0 SWAP3 DUP3 ADD DUP4 DUP2 MSTORE PUSH1 0x60 DUP4 ADD DUP5 DUP2 MSTORE PUSH1 0x1 DUP1 SLOAD DUP1 DUP3 ADD DUP3 SSTORE DUP2 DUP8 MSTORE SWAP5 MLOAD PUSH32 0xB10E2D527612073B26EECDFD717E6A320CF44B4AFAC2B0732D9FCBE2B7FA0CF6 PUSH1 0x4 SWAP1 SWAP7 MUL SWAP6 DUP7 ADD SSTORE SWAP3 MLOAD PUSH32 0xB10E2D527612073B26EECDFD717E6A320CF44B4AFAC2B0732D9FCBE2B7FA0CF7 DUP6 ADD SSTORE SWAP1 MLOAD PUSH32 0xB10E2D527612073B26EECDFD717E6A320CF44B4AFAC2B0732D9FCBE2B7FA0CF8 DUP5 ADD DUP1 SLOAD PUSH1 0xFF NOT AND SWAP2 ISZERO ISZERO SWAP2 SWAP1 SWAP2 OR SWAP1 SSTORE MLOAD PUSH32 0xB10E2D527612073B26EECDFD717E6A320CF44B4AFAC2B0732D9FCBE2B7FA0CF9 SWAP1 SWAP3 ADD SWAP2 SWAP1 SWAP2 SSTORE DUP1 SLOAD SWAP3 SWAP4 POP SWAP1 SWAP2 PUSH2 0xA09 SWAP2 SWAP1 PUSH2 0xCC6 JUMP JUMPDEST CALLER PUSH1 0x0 SWAP1 DUP2 MSTORE PUSH1 0x3 PUSH1 0x20 MSTORE PUSH1 0x40 DUP2 KECCAK256 DUP1 SLOAD SWAP3 SWAP4 POP SWAP1 PUSH2 0xA27 DUP4 PUSH2 0xD10 JUMP JUMPDEST SWAP1 SWAP2 SSTORE POP POP PUSH1 0x40 DUP1 MLOAD DUP4 DUP2 MSTORE CALLER PUSH1 0x20 DUP3 ADD MSTORE DUP5 SWAP2 DUP4 SWAP2 PUSH32 0xD10E139CB66868D34703C86CE0C8D254A578F1BB9BA2992CA5CDAD3C3E2A8E71 SWAP2 ADD PUSH1 0x40 MLOAD DUP1 SWAP2 SUB SWAP1 LOG3 POP POP POP JUMP JUMPDEST PUSH1 0x0 PUSH1 0x20 DUP3 DUP5 SUB SLT ISZERO PUSH2 0xA7F JUMPI PUSH1 0x0 DUP1 REVERT JUMPDEST DUP2 CALLDATALOAD PUSH1 0x1 PUSH1 0x1 PUSH1 0xA0 SHL SUB DUP2 AND DUP2 EQ PUSH2 0xA96 JUMPI PUSH1 0x0 DUP1 REVERT JUMPDEST SWAP4 SWAP3 POP POP POP JUMP JUMPDEST PUSH1 0x0 PUSH1 0x20 DUP3 DUP5 SUB SLT ISZERO PUSH2 0xAAF JUMPI PUSH1 0x0 DUP1 REVERT JUMPDEST POP CALLDATALOAD SWAP2 SWAP1 POP JUMP JUMPDEST PUSH4 0x4E487B71 PUSH1 0xE0 SHL PUSH1 0x0 MSTORE PUSH1 0x21 PUSH1 0x4 MSTORE PUSH1 0x24 PUSH1 0x0 REVERT JUMPDEST PUSH1 0x3 DUP2 LT PUSH2 0xAEA JUMPI PUSH4 0x4E487B71 PUSH1 0xE0 SHL PUSH1 0x0 MSTORE PUSH1 0x21 PUSH1 0x4 MSTORE PUSH1 0x24 PUSH1 0x0 REVERT JUMPDEST POP JUMP JUMPDEST DUP2 MLOAD DUP2 MSTORE PUSH1 0x20 DUP3 ADD MLOAD PUSH2 0x120 DUP3 ADD SWAP1 PUSH2 0xB05 DUP2 PUSH2 0xACC JUMP JUMPDEST PUSH1 0x20 DUP4 ADD MSTORE PUSH1 0x40 DUP4 ADD MLOAD PUSH2 0xB18 DUP2 PUSH2 0xACC JUMP JUMPDEST DUP1 PUSH1 0x40 DUP5 ADD MSTORE POP PUSH1 0x60 DUP4 ADD MLOAD PUSH2 0xB33 PUSH1 0x60 DUP5 ADD DUP3 PUSH1 0xFF AND SWAP1 MSTORE JUMP JUMPDEST POP PUSH1 0x80 DUP4 ADD MLOAD PUSH1 0x80 DUP4 ADD MSTORE PUSH1 0xA0 DUP4 ADD MLOAD PUSH1 0xA0 DUP4 ADD MSTORE PUSH1 0xC0 DUP4 ADD MLOAD PUSH1 0xC0 DUP4 ADD MSTORE PUSH1 0xE0 DUP4 ADD MLOAD PUSH2 0xB6C PUSH1 0xE0 DUP5 ADD DUP3 PUSH1 0x1 PUSH1 0x1 PUSH1 0xA0 SHL SUB AND SWAP1 MSTORE JUMP JUMPDEST POP PUSH2 0x100 SWAP3 DUP4 ADD MLOAD ISZERO ISZERO SWAP2 SWAP1 SWAP3 ADD MSTORE SWAP1 JUMP JUMPDEST DUP10 DUP2 MSTORE PUSH2 0x120 DUP2 ADD PUSH2 0xB8F DUP11 PUSH2 0xACC JUMP JUMPDEST DUP10 PUSH1 0x20 DUP4 ADD MSTORE PUSH2 0xB9E DUP10 PUSH2 0xACC JUMP JUMPDEST PUSH1 0x40 DUP3 ADD SWAP9 SWAP1 SWAP9 MSTORE PUSH1 0xFF SWAP7 SWAP1 SWAP7 AND PUSH1 0x60 DUP8 ADD MSTORE PUSH1 0x80 DUP7 ADD SWAP5 SWAP1 SWAP5 MSTORE PUSH1 0xA0 DUP6 ADD SWAP3 SWAP1 SWAP3 MSTORE PUSH1 0xC0 DUP5 ADD MSTORE PUSH1 0x1 PUSH1 0x1 PUSH1 0xA0 SHL SUB AND PUSH1 0xE0 DUP4 ADD MSTORE ISZERO ISZERO PUSH2 0x100 SWAP1 SWAP2 ADD MSTORE SWAP3 SWAP2 POP POP JUMP JUMPDEST PUSH1 0x3 DUP2 LT PUSH2 0xAEA JUMPI PUSH1 0x0 DUP1 REVERT JUMPDEST PUSH1 0x0 DUP1 PUSH1 0x0 DUP1 PUSH1 0x0 DUP1 PUSH1 0xC0 DUP8 DUP10 SUB SLT ISZERO PUSH2 0xC09 JUMPI PUSH1 0x0 DUP1 REVERT JUMPDEST DUP7 CALLDATALOAD SWAP6 POP PUSH1 0x20 DUP8 ADD CALLDATALOAD PUSH2 0xC1B DUP2 PUSH2 0xBE3 JUMP JUMPDEST SWAP5 POP PUSH1 0x40 DUP8 ADD CALLDATALOAD PUSH2 0xC2B DUP2 PUSH2 0xBE3 JUMP JUMPDEST SWAP4 POP PUSH1 0x60 DUP8 ADD CALLDATALOAD PUSH1 0xFF DUP2 AND DUP2 EQ PUSH2 0xC41 JUMPI PUSH1 0x0 DUP1 REVERT JUMPDEST SWAP6 SWAP9 SWAP5 SWAP8 POP SWAP3 SWAP6 PUSH1 0x80 DUP2 ADD CALLDATALOAD SWAP5 PUSH1 0xA0 SWAP1 SWAP2 ADD CALLDATALOAD SWAP4 POP SWAP2 POP POP JUMP JUMPDEST PUSH4 0x4E487B71 PUSH1 0xE0 SHL PUSH1 0x0 MSTORE PUSH1 0x11 PUSH1 0x4 MSTORE PUSH1 0x24 PUSH1 0x0 REVERT JUMPDEST DUP1 DUP3 MUL DUP2 ISZERO DUP3 DUP3 DIV DUP5 EQ OR PUSH2 0xC88 JUMPI PUSH2 0xC88 PUSH2 0xC5B JUMP JUMPDEST SWAP3 SWAP2 POP POP JUMP JUMPDEST PUSH1 0x0 DUP3 PUSH2 0xCAB JUMPI PUSH4 0x4E487B71 PUSH1 0xE0 SHL PUSH1 0x0 MSTORE PUSH1 0x12 PUSH1 0x4 MSTORE PUSH1 0x24 PUSH1 0x0 REVERT JUMPDEST POP DIV SWAP1 JUMP JUMPDEST PUSH4 0x4E487B71 PUSH1 0xE0 SHL PUSH1 0x0 MSTORE PUSH1 0x32 PUSH1 0x4 MSTORE PUSH1 0x24 PUSH1 0x0 REVERT JUMPDEST DUP2 DUP2 SUB DUP2 DUP2 GT ISZERO PUSH2 0xC88 JUMPI PUSH2 0xC88 PUSH2 0xC5B JUMP JUMPDEST PUSH1 0x80 DUP2 ADD PUSH2 0xCE6 DUP7 PUSH2 0xACC JUMP JUMPDEST DUP6 DUP3 MSTORE PUSH2 0xCF2 DUP6 PUSH2 0xACC JUMP JUMPDEST DUP5 PUSH1 0x20 DUP4 ADD MSTORE PUSH1 0xFF DUP5 AND PUSH1 0x40 DUP4 ADD MSTORE DUP3 PUSH1 0x60 DUP4 ADD MSTORE SWAP6 SWAP5 POP POP POP POP POP JUMP JUMPDEST PUSH1 0x0 PUSH1 0x1 DUP3 ADD PUSH2 0xD22 JUMPI PUSH2 0xD22 PUSH2 0xC5B JUMP JUMPDEST POP PUSH1 0x1 ADD SWAP1 JUMP JUMPDEST DUP1 DUP3 ADD DUP1 DUP3 GT ISZERO PUSH2 0xC88 JUMPI PUSH2 0xC88 PUSH2 0xC5B JUMP INVALID LOG2 PUSH5 0x6970667358 0x22 SLT KECCAK256 PUSH6 0xD2242A24A368 CALLDATASIZE 0xC6 0xC3 CREATE 0x4B 0xC2 PUSH7 0xD68248F458CA88 0xB3 SWAP6 MUL 0xFB 0xD0 DIV DUP5 EXTCODECOPY 0xF PUSH26 0xB64736F6C634300081400330000000000000000000000000000 "},"methodIdentifiers":{"decisions(uint256)":"b829df82","fulfillSLA(uint256)":"e83e4d63","fulfilledSLAs(address)":"f5482901","getDecision(uint256)":"af754848","getProfile(address)":"0f53a470","getSLA(uint256)":"bf7792d2","logDecision(bytes32,uint8,uint8,uint8,bytes32,bytes32)":"e35e0504","opsScore(address)":"cdc6c857","slaCommitments(uint256)":"bee3b229","totalDecisions()":"0c96a61a","totalSLACommitments()":"64d1e7ec","totalSLAs(address)":"beed071f"}}}}}