{"contracts/OperationsRegistry.sol":{"OperationsRegistry":{"abi":[{"anonymous":false,"inputs":[{"indexed":true,"internalType":"uint256","name":"id","type":"uint256"},{"indexed":false,"internalType":"enum OperationsRegistry.ModuleType","name":"module","type":"uint8"},{"indexed":false,"internalType":"enum OperationsRegistry.Verdict","name":"verdict","type":"uint8"},{"indexed":false,"internalType":"uint8","name":"confidence","type":"uint8"},{"indexed":false,"internalType":"uint256","name":"timestamp","type":"uint256"}],"name":"DecisionLogged","type":"event"},{"anonymous":false,"inputs":[{"indexed":true,"internalType":"address","name":"operator","type":"address"},{"indexed":false,"internalType":"uint256","name":"newScore","type":"uint256"},{"indexed":false,"internalType":"bool","name":"increased","type":"bool"}],"name":"ReputationUpdated","type":"event"},{"anonymous":false,"inputs":[{"indexed":true,"internalType":"uint256","name":"slaId","type":"uint256"},{"indexed":false,"internalType":"address","name":"fulfiller","type":"address"},{"indexed":false,"internalType":"uint256","name":"hoursRemaining","type":"uint256"}],"name":"SLAFulfilled","type":"event"},{"anonymous":false,"inputs":[{"indexed":true,"internalType":"uint256","name":"slaId","type":"uint256"},{"indexed":true,"internalType":"uint256","name":"decisionId","type":"uint256"},{"indexed":false,"internalType":"uint256","name":"deadline","type":"uint256"},{"indexed":false,"internalType":"address","name":"operator","type":"address"}],"name":"SLAMinted","type":"event"},{"inputs":[{"internalType":"uint256","name":"","type":"uint256"}],"name":"decisions","outputs":[{"internalType":"bytes32","name":"inputHash","type":"bytes32"},{"internalType":"enum OperationsRegistry.ModuleType","name":"module","type":"uint8"},{"internalType":"enum OperationsRegistry.Verdict","name":"verdict","type":"uint8"},{"internalType":"uint8","name":"confidence","type":"uint8"},{"internalType":"bytes32","name":"advocateHash","type":"bytes32"},{"internalType":"bytes32","name":"skepticHash","type":"bytes32"},{"internalType":"bytes32","name":"judgeHash","type":"bytes32"},{"internalType":"uint256","name":"timestamp","type":"uint256"},{"internalType":"address","name":"operator","type":"address"},{"internalType":"bool","name":"slaCreated","type":"bool"}],"stateMutability":"view","type":"function"},{"inputs":[{"internalType":"uint256","name":"_slaId","type":"uint256"}],"name":"fulfillSLA","outputs":[],"stateMutability":"nonpayable","type":"function"},{"inputs":[{"internalType":"address","name":"","type":"address"}],"name":"fulfilledSLAs","outputs":[{"internalType":"uint256","name":"","type":"uint256"}],"stateMutability":"view","type":"function"},{"inputs":[{"internalType":"uint256","name":"id","type":"uint256"}],"name":"getDecision","outputs":[{"components":[{"internalType":"bytes32","name":"inputHash","type":"bytes32"},{"internalType":"enum OperationsRegistry.ModuleType","name":"module","type":"uint8"},{"internalType":"enum OperationsRegistry.Verdict","name":"verdict","type":"uint8"},{"internalType":"uint8","name":"confidence","type":"uint8"},{"internalType":"bytes32","name":"advocateHash","type":"bytes32"},{"internalType":"bytes32","name":"skepticHash","type":"bytes32"},{"internalType":"bytes32","name":"judgeHash","type":"bytes32"},{"internalType":"uint256","name":"timestamp","type":"uint256"},{"internalType":"address","name":"operator","type":"address"},{"internalType":"bool","name":"slaCreated","type":"bool"}],"internalType":"struct OperationsRegistry.Decision","name":"","type":"tuple"}],"stateMutability":"view","type":"function"},{"inputs":[{"internalType":"address","name":"operator","type":"address"}],"name":"getProfile","outputs":[{"internalType":"uint256","name":"score","type":"uint256"},{"internalType":"uint256","name":"total","type":"uint256"},{"internalType":"uint256","name":"fulfilled","type":"uint256"},{"internalType":"uint256","name":"fulfillRate","type":"uint256"}],"stateMutability":"view","type":"function"},{"inputs":[{"internalType":"uint256","name":"id","type":"uint256"}],"name":"getSLA","outputs":[{"components":[{"internalType":"uint256","name":"decisionId","type":"uint256"},{"internalType":"uint256","name":"deadline","type":"uint256"},{"internalType":"bool","name":"fulfilled","type":"bool"},{"internalType":"uint256","name":"fulfilledAt","type":"uint256"}],"internalType":"struct OperationsRegistry.SLACommitment","name":"","type":"tuple"}],"stateMutability":"view","type":"function"},{"inputs":[{"internalType":"bytes32","name":"_inputHash","type":"bytes32"},{"internalType":"enum OperationsRegistry.ModuleType","name":"_module","type":"uint8"},{"internalType":"enum OperationsRegistry.Verdict","name":"_verdict","type":"uint8"},{"internalType":"uint8","name":"_confidence","type":"uint8"},{"internalType":"bytes32","name":"_advocateHash","type":"bytes32"},{"internalType":"bytes32","name":"_skepticHash","type":"bytes32"},{"internalType":"bytes32","name":"_judgeHash","type":"bytes32"}],"name":"logDecision","outputs":[{"internalType":"uint256","name":"decisionId","type":"uint256"}],"stateMutability":"nonpayable","type":"function"},{"inputs":[{"internalType":"address","name":"","type":"address"}],"name":"opsScore","outputs":[{"internalType":"uint256","name":"","type":"uint256"}],"stateMutability":"view","type":"function"},{"inputs":[{"internalType":"uint256","name":"","type":"uint256"}],"name":"slaCommitments","outputs":[{"internalType":"uint256","name":"decisionId","type":"uint256"},{"internalType":"uint256","name":"deadline","type":"uint256"},{"internalType":"bool","name":"fulfilled","type":"bool"},{"internalType":"uint256","name":"fulfilledAt","type":"uint256"}],"stateMutability":"view","type":"function"},{"inputs":[],"name":"totalDecisions","outputs":[{"internalType":"uint256","name":"","type":"uint256"}],"stateMutability":"view","type":"function"},{"inputs":[],"name":"totalSLACommitments","outputs":[{"internalType":"uint256","name":"","type":"uint256"}],"stateMutability":"view","type":"function"},{"inputs":[{"internalType":"address","name":"","type":"address"}],"name":"totalSLAs","outputs":[{"internalType":"uint256","name":"","type":"uint256"}],"stateMutability":"view","type":"function"}],"evm":{"bytecode":{"linkReferences":{},"object":"608060405234801561001057600080fd5b50610dc3806100206000396000f3fe608060405234801561001057600080fd5b50600436106100b45760003560e01c8063bee3b22911610071578063bee3b22914610167578063beed071f146101a0578063bf7792d2146101c0578063cdc6c85714610208578063e83e4d6314610228578063f54829011461023d57600080fd5b80630c96a61a146100b95780630f53a470146100d05780634c97f02d1461010357806364d1e7ec14610116578063af7548481461011e578063b829df821461013e575b600080fd5b6000545b6040519081526020015b60405180910390f35b6100e36100de366004610a95565b61025d565b6040805194855260208501939093529183015260608201526080016100c7565b6100bd610111366004610ad5565b6102b8565b6001546100bd565b61013161012c366004610b49565b6104e3565b6040516100c79190610ba3565b61015161014c366004610b49565b61064b565b6040516100c79a99989796959493929190610c3e565b61017a610175366004610b49565b6106bf565b6040805194855260208501939093529015159183019190915260608201526080016100c7565b6100bd6101ae366004610a95565b60036020526000908152604090205481565b6101d36101ce366004610b49565b6106fc565b6040516100c7919081518152602080830151908201526040808301511515908201526060918201519181019190915260800190565b6100bd610216366004610a95565b60026020526000908152604090205481565b61023b610236366004610b49565b610788565b005b6100bd61024b366004610a95565b60046020526000908152604090205481565b6001600160a01b03811660009081526002602090815260408083205460038352818420546004909352908320549092826102985760006102af565b826102a583612710610cc2565b6102af9190610cdf565b90509193509193565b6000806040518061014001604052808a81526020018960028111156102df576102df610b62565b81526020018860028111156102f6576102f6610b62565b815260ff88166020808301919091526040820188905260608201879052608082018690524260a08301523360c0830152600060e09092018290528354600181810186559483529181902083516007909302019182558201518184018054939492939192909160ff19169083600281111561037257610372610b62565b0217905550604082015160018201805461ff00191661010083600281111561039c5761039c610b62565b021790555060608201516001808301805460ff909316620100000262ff000019909316929092179091556080830151600283015560a0830151600383015560c0830151600483015560e0830151600583015561010083015160069092018054610120909401511515600160a01b026001600160a81b03199094166001600160a01b03909316929092179290921790556000546104389190610d01565b9050807f809e193a15b49354e266a4a7e34fe9cfcfc126af57622333b1c4ddaba6579da3888888426040516104709493929190610d14565b60405180910390a2600086600281111561048c5761048c610b62565b036104d85761049a81610933565b6001600082815481106104af576104af610d4b565b906000526020600020906007020160060160146101000a81548160ff0219169083151502179055505b979650505050505050565b61053a6040805161014081019091526000808252602082019081526020016000815260006020820181905260408201819052606082018190526080820181905260a0820181905260c0820181905260e09091015290565b6000828154811061054d5761054d610d4b565b906000526020600020906007020160405180610140016040529081600082015481526020016001820160009054906101000a900460ff16600281111561059557610595610b62565b60028111156105a6576105a6610b62565b81526020016001820160019054906101000a900460ff1660028111156105ce576105ce610b62565b60028111156105df576105df610b62565b8152600182015460ff6201000090910481166020830152600283015460408301526003830154606083015260048301546080830152600583015460a08301526006909201546001600160a01b03811660c0830152600160a01b9004909116151560e09091015292915050565b6000818154811061065b57600080fd5b6000918252602090912060079091020180546001820154600283015460038401546004850154600586015460069096015494965060ff8085169661010086048216966201000090960482169590916001600160a01b03821691600160a01b9004168a565b600181815481106106cf57600080fd5b600091825260209091206004909102018054600182015460028301546003909301549193509160ff169084565b61072960405180608001604052806000815260200160008152602001600015158152602001600081525090565b6001828154811061073c5761073c610d4b565b600091825260209182902060408051608081018252600490930290910180548352600181015493830193909352600283015460ff16151590820152600390910154606082015292915050565b60006001828154811061079d5761079d610d4b565b60009182526020909120600490910201600281015490915060ff16156107fd5760405162461bcd60e51b8152602060048201526011602482015270105b1c9958591e48199d5b199a5b1b1959607a1b604482015260640160405180910390fd5b60028101805460ff1916600117905542600382015533600090815260046020526040812080549161082d83610d61565b90915550506001810154600a9060009042101561087a57610e104284600101546108579190610d01565b6108619190610cdf565b9050600c81111561087a57610877600583610d7a565b91505b33600090815260026020526040812054610895908490610d7a565b905060648111156108a4575060645b336000818152600260209081526040918290208490558151928352820184905286917fa4a7e91b7ba2b52745eabce1cd032afb20ea7e68814d1a17bd7697875af837a7910160405180910390a2604080518281526001602082015233917fdb3885afbba6debf9c1bda35746ffcd3e3c749b3742be7c9a0904981b5befb99910160405180910390a25050505050565b60006109424262015180610d7a565b604080516080810182528481526020810183815260009282018381526060830184815260018054808201825581875294517fb10e2d527612073b26eecdfd717e6a320cf44b4afac2b0732d9fcbe2b7fa0cf660049096029586015592517fb10e2d527612073b26eecdfd717e6a320cf44b4afac2b0732d9fcbe2b7fa0cf785015590517fb10e2d527612073b26eecdfd717e6a320cf44b4afac2b0732d9fcbe2b7fa0cf88401805460ff1916911515919091179055517fb10e2d527612073b26eecdfd717e6a320cf44b4afac2b0732d9fcbe2b7fa0cf99092019190915580549293509091610a319190610d01565b336000908152600360205260408120805492935090610a4f83610d61565b909155505060408051838152336020820152849183917fd10e139cb66868d34703c86ce0c8d254a578f1bb9ba2992ca5cdad3c3e2a8e71910160405180910390a3505050565b600060208284031215610aa757600080fd5b81356001600160a01b0381168114610abe57600080fd5b9392505050565b60038110610ad257600080fd5b50565b600080600080600080600060e0888a031215610af057600080fd5b873596506020880135610b0281610ac5565b95506040880135610b1281610ac5565b9450606088013560ff81168114610b2857600080fd5b9699959850939660808101359560a0820135955060c0909101359350915050565b600060208284031215610b5b57600080fd5b5035919050565b634e487b7160e01b600052602160045260246000fd5b60038110610ad257634e487b7160e01b600052602160045260246000fd5b610b9f81610b78565b9052565b81518152602080830151610140830191610bbf90840182610b96565b506040830151610bd26040840182610b96565b506060830151610be7606084018260ff169052565b506080830151608083015260a083015160a083015260c083015160c083015260e083015160e083015261010080840151610c2b828501826001600160a01b03169052565b5050610120928301511515919092015290565b8a81526101408101610c4f8b610b78565b8a6020830152610c5e8a610b78565b604082019990995260ff979097166060880152608087019590955260a086019390935260c085019190915260e08401526001600160a01b031661010083015215156101209091015292915050565b634e487b7160e01b600052601160045260246000fd5b8082028115828204841417610cd957610cd9610cac565b92915050565b600082610cfc57634e487b7160e01b600052601260045260246000fd5b500490565b81810381811115610cd957610cd9610cac565b60808101610d2186610b78565b858252610d2d85610b78565b84602083015260ff8416604083015282606083015295945050505050565b634e487b7160e01b600052603260045260246000fd5b600060018201610d7357610d73610cac565b5060010190565b80820180821115610cd957610cd9610cac56fea26469706673582212202d9392e3cb2bc637b47036391d180fb7535a7f61e780ee32d6c33e2ae5ed973764736f6c63430008140033","opcodes":"PUSH1 0x80 PUSH1 0x40 MSTORE CALLVALUE DUP1 ISZERO PUSH2 0x10 JUMPI PUSH1 0x0 DUP1 REVERT JUMPDEST POP PUSH2 0xDC3 DUP1 PUSH2 0x20 PUSH1 0x0 CODECOPY PUSH1 0x0 RETURN INVALID PUSH1 0x80 PUSH1 0x40 MSTORE CALLVALUE DUP1 ISZERO PUSH2 0x10 JUMPI PUSH1 0x0 DUP1 REVERT JUMPDEST POP PUSH1 0x4 CALLDATASIZE LT PUSH2 0xB4 JUMPI PUSH1 0x0 CALLDATALOAD PUSH1 0xE0 SHR DUP1 PUSH4 0xBEE3B229 GT PUSH2 0x71 JUMPI DUP1 PUSH4 0xBEE3B229 EQ PUSH2 0x167 JUMPI DUP1 PUSH4 0xBEED071F EQ PUSH2 0x1A0 JUMPI DUP1 PUSH4 0xBF7792D2 EQ PUSH2 0x1C0 JUMPI DUP1 PUSH4 0xCDC6C857 EQ PUSH2 0x208 JUMPI DUP1 PUSH4 0xE83E4D63 EQ PUSH2 0x228 JUMPI DUP1 PUSH4 0xF5482901 EQ PUSH2 0x23D JUMPI PUSH1 0x0 DUP1 REVERT JUMPDEST DUP1 PUSH4 0xC96A61A EQ PUSH2 0xB9 JUMPI DUP1 PUSH4 0xF53A470 EQ PUSH2 0xD0 JUMPI DUP1 PUSH4 0x4C97F02D EQ PUSH2 0x103 JUMPI DUP1 PUSH4 0x64D1E7EC EQ PUSH2 0x116 JUMPI DUP1 PUSH4 0xAF754848 EQ PUSH2 0x11E JUMPI DUP1 PUSH4 0xB829DF82 EQ PUSH2 0x13E JUMPI JUMPDEST PUSH1 0x0 DUP1 REVERT JUMPDEST PUSH1 0x0 SLOAD JUMPDEST PUSH1 0x40 MLOAD SWAP1 DUP2 MSTORE PUSH1 0x20 ADD JUMPDEST PUSH1 0x40 MLOAD DUP1 SWAP2 SUB SWAP1 RETURN JUMPDEST PUSH2 0xE3 PUSH2 0xDE CALLDATASIZE PUSH1 0x4 PUSH2 0xA95 JUMP JUMPDEST PUSH2 0x25D JUMP JUMPDEST PUSH1 0x40 DUP1 MLOAD SWAP5 DUP6 MSTORE PUSH1 0x20 DUP6 ADD SWAP4 SWAP1 SWAP4 MSTORE SWAP2 DUP4 ADD MSTORE PUSH1 0x60 DUP3 ADD MSTORE PUSH1 0x80 ADD PUSH2 0xC7 JUMP JUMPDEST PUSH2 0xBD PUSH2 0x111 CALLDATASIZE PUSH1 0x4 PUSH2 0xAD5 JUMP JUMPDEST PUSH2 0x2B8 JUMP JUMPDEST PUSH1 0x1 SLOAD PUSH2 0xBD JUMP JUMPDEST PUSH2 0x131 PUSH2 0x12C CALLDATASIZE PUSH1 0x4 PUSH2 0xB49 JUMP JUMPDEST PUSH2 0x4E3 JUMP JUMPDEST PUSH1 0x40 MLOAD PUSH2 0xC7 SWAP2 SWAP1 PUSH2 0xBA3 JUMP JUMPDEST PUSH2 0x151 PUSH2 0x14C CALLDATASIZE PUSH1 0x4 PUSH2 0xB49 JUMP JUMPDEST PUSH2 0x64B JUMP JUMPDEST PUSH1 0x40 MLOAD PUSH2 0xC7 SWAP11 SWAP10 SWAP9 SWAP8 SWAP7 SWAP6 SWAP5 SWAP4 SWAP3 SWAP2 SWAP1 PUSH2 0xC3E JUMP JUMPDEST PUSH2 0x17A PUSH2 0x175 CALLDATASIZE PUSH1 0x4 PUSH2 0xB49 JUMP JUMPDEST PUSH2 0x6BF JUMP JUMPDEST PUSH1 0x40 DUP1 MLOAD SWAP5 DUP6 MSTORE PUSH1 0x20 DUP6 ADD SWAP4 SWAP1 SWAP4 MSTORE SWAP1 ISZERO ISZERO SWAP2 DUP4 ADD SWAP2 SWAP1 SWAP2 MSTORE PUSH1 0x60 DUP3 ADD MSTORE PUSH1 0x80 ADD PUSH2 0xC7 JUMP JUMPDEST PUSH2 0xBD PUSH2 0x1AE CALLDATASIZE PUSH1 0x4 PUSH2 0xA95 JUMP JUMPDEST PUSH1 0x3 PUSH1 0x20 MSTORE PUSH1 0x0 SWAP1 DUP2 MSTORE PUSH1 0x40 SWAP1 KECCAK256 SLOAD DUP2 JUMP JUMPDEST PUSH2 0x1D3 PUSH2 0x1CE CALLDATASIZE PUSH1 0x4 PUSH2 0xB49 JUMP JUMPDEST PUSH2 0x6FC JUMP JUMPDEST PUSH1 0x40 MLOAD PUSH2 0xC7 SWAP2 SWAP1 DUP2 MLOAD DUP2 MSTORE PUSH1 0x20 DUP1 DUP4 ADD MLOAD SWAP1 DUP3 ADD MSTORE PUSH1 0x40 DUP1 DUP4 ADD MLOAD ISZERO ISZERO SWAP1 DUP3 ADD MSTORE PUSH1 0x60 SWAP2 DUP3 ADD MLOAD SWAP2 DUP2 ADD SWAP2 SWAP1 SWAP2 MSTORE PUSH1 0x80 ADD SWAP1 JUMP JUMPDEST PUSH2 0xBD PUSH2 0x216 CALLDATASIZE PUSH1 0x4 PUSH2 0xA95 JUMP JUMPDEST PUSH1 0x2 PUSH1 0x20 MSTORE PUSH1 0x0 SWAP1 DUP2 MSTORE PUSH1 0x40 SWAP1 KECCAK256 SLOAD DUP2 JUMP JUMPDEST PUSH2 0x23B PUSH2 0x236 CALLDATASIZE PUSH1 0x4 PUSH2 0xB49 JUMP JUMPDEST PUSH2 0x788 JUMP JUMPDEST STOP JUMPDEST PUSH2 0xBD PUSH2 0x24B CALLDATASIZE PUSH1 0x4 PUSH2 0xA95 JUMP JUMPDEST PUSH1 0x4 PUSH1 0x20 MSTORE PUSH1 0x0 SWAP1 DUP2 MSTORE PUSH1 0x40 SWAP1 KECCAK256 SLOAD DUP2 JUMP JUMPDEST PUSH1 0x1 PUSH1 0x1 PUSH1 0xA0 SHL SUB DUP2 AND PUSH1 0x0 SWAP1 DUP2 MSTORE PUSH1 0x2 PUSH1 0x20 SWAP1 DUP2 MSTORE PUSH1 0x40 DUP1 DUP4 KECCAK256 SLOAD PUSH1 0x3 DUP4 MSTORE DUP2 DUP5 KECCAK256 SLOAD PUSH1 0x4 SWAP1 SWAP4 MSTORE SWAP1 DUP4 KECCAK256 SLOAD SWAP1 SWAP3 DUP3 PUSH2 0x298 JUMPI PUSH1 0x0 PUSH2 0x2AF JUMP JUMPDEST DUP3 PUSH2 0x2A5 DUP4 PUSH2 0x2710 PUSH2 0xCC2 JUMP JUMPDEST PUSH2 0x2AF SWAP2 SWAP1 PUSH2 0xCDF JUMP JUMPDEST SWAP1 POP SWAP2 SWAP4 POP SWAP2 SWAP4 JUMP JUMPDEST PUSH1 0x0 DUP1 PUSH1 0x40 MLOAD DUP1 PUSH2 0x140 ADD PUSH1 0x40 MSTORE DUP1 DUP11 DUP2 MSTORE PUSH1 0x20 ADD DUP10 PUSH1 0x2 DUP2 GT ISZERO PUSH2 0x2DF JUMPI PUSH2 0x2DF PUSH2 0xB62 JUMP JUMPDEST DUP2 MSTORE PUSH1 0x20 ADD DUP9 PUSH1 0x2 DUP2 GT ISZERO PUSH2 0x2F6 JUMPI PUSH2 0x2F6 PUSH2 0xB62 JUMP JUMPDEST DUP2 MSTORE PUSH1 0xFF DUP9 AND PUSH1 0x20 DUP1 DUP4 ADD SWAP2 SWAP1 SWAP2 MSTORE PUSH1 0x40 DUP3 ADD DUP9 SWAP1 MSTORE PUSH1 0x60 DUP3 ADD DUP8 SWAP1 MSTORE PUSH1 0x80 DUP3 ADD DUP7 SWAP1 MSTORE TIMESTAMP PUSH1 0xA0 DUP4 ADD MSTORE CALLER PUSH1 0xC0 DUP4 ADD MSTORE PUSH1 0x0 PUSH1 0xE0 SWAP1 SWAP3 ADD DUP3 SWAP1 MSTORE DUP4 SLOAD PUSH1 0x1 DUP2 DUP2 ADD DUP7 SSTORE SWAP5 DUP4 MSTORE SWAP2 DUP2 SWAP1 KECCAK256 DUP4 MLOAD PUSH1 0x7 SWAP1 SWAP4 MUL ADD SWAP2 DUP3 SSTORE DUP3 ADD MLOAD DUP2 DUP5 ADD DUP1 SLOAD SWAP4 SWAP5 SWAP3 SWAP4 SWAP2 SWAP3 SWAP1 SWAP2 PUSH1 0xFF NOT AND SWAP1 DUP4 PUSH1 0x2 DUP2 GT ISZERO PUSH2 0x372 JUMPI PUSH2 0x372 PUSH2 0xB62 JUMP JUMPDEST MUL OR SWAP1 SSTORE POP PUSH1 0x40 DUP3 ADD MLOAD PUSH1 0x1 DUP3 ADD DUP1 SLOAD PUSH2 0xFF00 NOT AND PUSH2 0x100 DUP4 PUSH1 0x2 DUP2 GT ISZERO PUSH2 0x39C JUMPI PUSH2 0x39C PUSH2 0xB62 JUMP JUMPDEST MUL OR SWAP1 SSTORE POP PUSH1 0x60 DUP3 ADD MLOAD PUSH1 0x1 DUP1 DUP4 ADD DUP1 SLOAD PUSH1 0xFF SWAP1 SWAP4 AND PUSH3 0x10000 MUL PUSH3 0xFF0000 NOT SWAP1 SWAP4 AND SWAP3 SWAP1 SWAP3 OR SWAP1 SWAP2 SSTORE PUSH1 0x80 DUP4 ADD MLOAD PUSH1 0x2 DUP4 ADD SSTORE PUSH1 0xA0 DUP4 ADD MLOAD PUSH1 0x3 DUP4 ADD SSTORE PUSH1 0xC0 DUP4 ADD MLOAD PUSH1 0x4 DUP4 ADD SSTORE PUSH1 0xE0 DUP4 ADD MLOAD PUSH1 0x5 DUP4 ADD SSTORE PUSH2 0x100 DUP4 ADD MLOAD PUSH1 0x6 SWAP1 SWAP3 ADD DUP1 SLOAD PUSH2 0x120 SWAP1 SWAP5 ADD MLOAD ISZERO ISZERO PUSH1 0x1 PUSH1 0xA0 SHL MUL PUSH1 0x1 PUSH1 0x1 PUSH1 0xA8 SHL SUB NOT SWAP1 SWAP5 AND PUSH1 0x1 PUSH1 0x1 PUSH1 0xA0 SHL SUB SWAP1 SWAP4 AND SWAP3 SWAP1 SWAP3 OR SWAP3 SWAP1 SWAP3 OR SWAP1 SSTORE PUSH1 0x0 SLOAD PUSH2 0x438 SWAP2 SWAP1 PUSH2 0xD01 JUMP JUMPDEST SWAP1 POP DUP1 PUSH32 0x809E193A15B49354E266A4A7E34FE9CFCFC126AF57622333B1C4DDABA6579DA3 DUP9 DUP9 DUP9 TIMESTAMP PUSH1 0x40 MLOAD PUSH2 0x470 SWAP5 SWAP4 SWAP3 SWAP2 SWAP1 PUSH2 0xD14 JUMP JUMPDEST PUSH1 0x40 MLOAD DUP1 SWAP2 SUB SWAP1 LOG2 PUSH1 0x0 DUP7 PUSH1 0x2 DUP2 GT ISZERO PUSH2 0x48C JUMPI PUSH2 0x48C PUSH2 0xB62 JUMP JUMPDEST SUB PUSH2 0x4D8 JUMPI PUSH2 0x49A DUP2 PUSH2 0x933 JUMP JUMPDEST PUSH1 0x1 PUSH1 0x0 DUP3 DUP2 SLOAD DUP2 LT PUSH2 0x4AF JUMPI PUSH2 0x4AF PUSH2 0xD4B JUMP JUMPDEST SWAP1 PUSH1 0x0 MSTORE PUSH1 0x20 PUSH1 0x0 KECCAK256 SWAP1 PUSH1 0x7 MUL ADD PUSH1 0x6 ADD PUSH1 0x14 PUSH2 0x100 EXP DUP2 SLOAD DUP2 PUSH1 0xFF MUL NOT AND SWAP1 DUP4 ISZERO ISZERO MUL OR SWAP1 SSTORE POP JUMPDEST SWAP8 SWAP7 POP POP POP POP POP POP POP JUMP JUMPDEST PUSH2 0x53A PUSH1 0x40 DUP1 MLOAD PUSH2 0x140 DUP2 ADD SWAP1 SWAP2 MSTORE PUSH1 0x0 DUP1 DUP3 MSTORE PUSH1 0x20 DUP3 ADD SWAP1 DUP2 MSTORE PUSH1 0x20 ADD PUSH1 0x0 DUP2 MSTORE PUSH1 0x0 PUSH1 0x20 DUP3 ADD DUP2 SWAP1 MSTORE PUSH1 0x40 DUP3 ADD DUP2 SWAP1 MSTORE PUSH1 0x60 DUP3 ADD DUP2 SWAP1 MSTORE PUSH1 0x80 DUP3 ADD DUP2 SWAP1 MSTORE PUSH1 0xA0 DUP3 ADD DUP2 SWAP1 MSTORE PUSH1 0xC0 DUP3 ADD DUP2 SWAP1 MSTORE PUSH1 0xE0 SWAP1 SWAP2 ADD MSTORE SWAP1 JUMP JUMPDEST PUSH1 0x0 DUP3 DUP2 SLOAD DUP2 LT PUSH2 0x54D JUMPI PUSH2 0x54D PUSH2 0xD4B JUMP JUMPDEST SWAP1 PUSH1 0x0 MSTORE PUSH1 0x20 PUSH1 0x0 KECCAK256 SWAP1 PUSH1 0x7 MUL ADD PUSH1 0x40 MLOAD DUP1 PUSH2 0x140 ADD PUSH1 0x40 MSTORE SWAP1 DUP2 PUSH1 0x0 DUP3 ADD SLOAD DUP2 MSTORE PUSH1 0x20 ADD PUSH1 0x1 DUP3 ADD PUSH1 0x0 SWAP1 SLOAD SWAP1 PUSH2 0x100 EXP SWAP1 DIV PUSH1 0xFF AND PUSH1 0x2 DUP2 GT ISZERO PUSH2 0x595 JUMPI PUSH2 0x595 PUSH2 0xB62 JUMP JUMPDEST PUSH1 0x2 DUP2 GT ISZERO PUSH2 0x5A6 JUMPI PUSH2 0x5A6 PUSH2 0xB62 JUMP JUMPDEST DUP2 MSTORE PUSH1 0x20 ADD PUSH1 0x1 DUP3 ADD PUSH1 0x1 SWAP1 SLOAD SWAP1 PUSH2 0x100 EXP SWAP1 DIV PUSH1 0xFF AND PUSH1 0x2 DUP2 GT ISZERO PUSH2 0x5CE JUMPI PUSH2 0x5CE PUSH2 0xB62 JUMP JUMPDEST PUSH1 0x2 DUP2 GT ISZERO PUSH2 0x5DF JUMPI PUSH2 0x5DF PUSH2 0xB62 JUMP JUMPDEST DUP2 MSTORE PUSH1 0x1 DUP3 ADD SLOAD PUSH1 0xFF PUSH3 0x10000 SWAP1 SWAP2 DIV DUP2 AND PUSH1 0x20 DUP4 ADD MSTORE PUSH1 0x2 DUP4 ADD SLOAD PUSH1 0x40 DUP4 ADD MSTORE PUSH1 0x3 DUP4 ADD SLOAD PUSH1 0x60 DUP4 ADD MSTORE PUSH1 0x4 DUP4 ADD SLOAD PUSH1 0x80 DUP4 ADD MSTORE PUSH1 0x5 DUP4 ADD SLOAD PUSH1 0xA0 DUP4 ADD MSTORE PUSH1 0x6 SWAP1 SWAP3 ADD SLOAD PUSH1 0x1 PUSH1 0x1 PUSH1 0xA0 SHL SUB DUP2 AND PUSH1 0xC0 DUP4 ADD MSTORE PUSH1 0x1 PUSH1 0xA0 SHL SWAP1 DIV SWAP1 SWAP2 AND ISZERO ISZERO PUSH1 0xE0 SWAP1 SWAP2 ADD MSTORE SWAP3 SWAP2 POP POP JUMP JUMPDEST PUSH1 0x0 DUP2 DUP2 SLOAD DUP2 LT PUSH2 0x65B JUMPI PUSH1 0x0 DUP1 REVERT JUMPDEST PUSH1 0x0 SWAP2 DUP3 MSTORE PUSH1 0x20 SWAP1 SWAP2 KECCAK256 PUSH1 0x7 SWAP1 SWAP2 MUL ADD DUP1 SLOAD PUSH1 0x1 DUP3 ADD SLOAD PUSH1 0x2 DUP4 ADD SLOAD PUSH1 0x3 DUP5 ADD SLOAD PUSH1 0x4 DUP6 ADD SLOAD PUSH1 0x5 DUP7 ADD SLOAD PUSH1 0x6 SWAP1 SWAP7 ADD SLOAD SWAP5 SWAP7 POP PUSH1 0xFF DUP1 DUP6 AND SWAP7 PUSH2 0x100 DUP7 DIV DUP3 AND SWAP7 PUSH3 0x10000 SWAP1 SWAP7 DIV DUP3 AND SWAP6 SWAP1 SWAP2 PUSH1 0x1 PUSH1 0x1 PUSH1 0xA0 SHL SUB DUP3 AND SWAP2 PUSH1 0x1 PUSH1 0xA0 SHL SWAP1 DIV AND DUP11 JUMP JUMPDEST PUSH1 0x1 DUP2 DUP2 SLOAD DUP2 LT PUSH2 0x6CF JUMPI PUSH1 0x0 DUP1 REVERT JUMPDEST PUSH1 0x0 SWAP2 DUP3 MSTORE PUSH1 0x20 SWAP1 SWAP2 KECCAK256 PUSH1 0x4 SWAP1 SWAP2 MUL ADD DUP1 SLOAD PUSH1 0x1 DUP3 ADD SLOAD PUSH1 0x2 DUP4 ADD SLOAD PUSH1 0x3 SWAP1 SWAP4 ADD SLOAD SWAP2 SWAP4 POP SWAP2 PUSH1 0xFF AND SWAP1 DUP5 JUMP JUMPDEST PUSH2 0x729 PUSH1 0x40 MLOAD DUP1 PUSH1 0x80 ADD PUSH1 0x40 MSTORE DUP1 PUSH1 0x0 DUP2 MSTORE PUSH1 0x20 ADD PUSH1 0x0 DUP2 MSTORE PUSH1 0x20 ADD PUSH1 0x0 ISZERO ISZERO DUP2 MSTORE PUSH1 0x20 ADD PUSH1 0x0 DUP2 MSTORE POP SWAP1 JUMP JUMPDEST PUSH1 0x1 DUP3 DUP2 SLOAD DUP2 LT PUSH2 0x73C JUMPI PUSH2 0x73C PUSH2 0xD4B JUMP JUMPDEST PUSH1 0x0 SWAP2 DUP3 MSTORE PUSH1 0x20 SWAP2 DUP3 SWAP1 KECCAK256 PUSH1 0x40 DUP1 MLOAD PUSH1 0x80 DUP2 ADD DUP3 MSTORE PUSH1 0x4 SWAP1 SWAP4 MUL SWAP1 SWAP2 ADD DUP1 SLOAD DUP4 MSTORE PUSH1 0x1 DUP2 ADD SLOAD SWAP4 DUP4 ADD SWAP4 SWAP1 SWAP4 MSTORE PUSH1 0x2 DUP4 ADD SLOAD PUSH1 0xFF AND ISZERO ISZERO SWAP1 DUP3 ADD MSTORE PUSH1 0x3 SWAP1 SWAP2 ADD SLOAD PUSH1 0x60 DUP3 ADD MSTORE SWAP3 SWAP2 POP POP JUMP JUMPDEST PUSH1 0x0 PUSH1 0x1 DUP3 DUP2 SLOAD DUP2 LT PUSH2 0x79D JUMPI PUSH2 0x79D PUSH2 0xD4B JUMP JUMPDEST PUSH1 0x0 SWAP2 DUP3 MSTORE PUSH1 0x20 SWAP1 SWAP2 KECCAK256 PUSH1 0x4 SWAP1 SWAP2 MUL ADD PUSH1 0x2 DUP2 ADD SLOAD SWAP1 SWAP2 POP PUSH1 0xFF AND ISZERO PUSH2 0x7FD JUMPI PUSH1 0x40 MLOAD PUSH3 0x461BCD PUSH1 0xE5 SHL DUP2 MSTORE PUSH1 0x20 PUSH1 0x4 DUP3 ADD MSTORE PUSH1 0x11 PUSH1 0x24 DUP3 ADD MSTORE PUSH17 0x105B1C9958591E48199D5B199A5B1B1959 PUSH1 0x7A SHL PUSH1 0x44 DUP3 ADD MSTORE PUSH1 0x64 ADD PUSH1 0x40 MLOAD DUP1 SWAP2 SUB SWAP1 REVERT JUMPDEST PUSH1 0x2 DUP2 ADD DUP1 SLOAD PUSH1 0xFF NOT AND PUSH1 0x1 OR SWAP1 SSTORE TIMESTAMP PUSH1 0x3 DUP3 ADD SSTORE CALLER PUSH1 0x0 SWAP1 DUP2 MSTORE PUSH1 0x4 PUSH1 0x20 MSTORE PUSH1 0x40 DUP2 KECCAK256 DUP1 SLOAD SWAP2 PUSH2 0x82D DUP4 PUSH2 0xD61 JUMP JUMPDEST SWAP1 SWAP2 SSTORE POP POP PUSH1 0x1 DUP2 ADD SLOAD PUSH1 0xA SWAP1 PUSH1 0x0 SWAP1 TIMESTAMP LT ISZERO PUSH2 0x87A JUMPI PUSH2 0xE10 TIMESTAMP DUP5 PUSH1 0x1 ADD SLOAD PUSH2 0x857 SWAP2 SWAP1 PUSH2 0xD01 JUMP JUMPDEST PUSH2 0x861 SWAP2 SWAP1 PUSH2 0xCDF JUMP JUMPDEST SWAP1 POP PUSH1 0xC DUP2 GT ISZERO PUSH2 0x87A JUMPI PUSH2 0x877 PUSH1 0x5 DUP4 PUSH2 0xD7A JUMP JUMPDEST SWAP2 POP JUMPDEST CALLER PUSH1 0x0 SWAP1 DUP2 MSTORE PUSH1 0x2 PUSH1 0x20 MSTORE PUSH1 0x40 DUP2 KECCAK256 SLOAD PUSH2 0x895 SWAP1 DUP5 SWAP1 PUSH2 0xD7A JUMP JUMPDEST SWAP1 POP PUSH1 0x64 DUP2 GT ISZERO PUSH2 0x8A4 JUMPI POP PUSH1 0x64 JUMPDEST CALLER PUSH1 0x0 DUP2 DUP2 MSTORE PUSH1 0x2 PUSH1 0x20 SWAP1 DUP2 MSTORE PUSH1 0x40 SWAP2 DUP3 SWAP1 KECCAK256 DUP5 SWAP1 SSTORE DUP2 MLOAD SWAP3 DUP4 MSTORE DUP3 ADD DUP5 SWAP1 MSTORE DUP7 SWAP2 PUSH32 0xA4A7E91B7BA2B52745EABCE1CD032AFB20EA7E68814D1A17BD7697875AF837A7 SWAP2 ADD PUSH1 0x40 MLOAD DUP1 SWAP2 SUB SWAP1 LOG2 PUSH1 0x40 DUP1 MLOAD DUP3 DUP2 MSTORE PUSH1 0x1 PUSH1 0x20 DUP3 ADD MSTORE CALLER SWAP2 PUSH32 0xDB3885AFBBA6DEBF9C1BDA35746FFCD3E3C749B3742BE7C9A0904981B5BEFB99 SWAP2 ADD PUSH1 0x40 MLOAD DUP1 SWAP2 SUB SWAP1 LOG2 POP POP POP POP POP JUMP JUMPDEST PUSH1 0x0 PUSH2 0x942 TIMESTAMP PUSH3 0x15180 PUSH2 0xD7A JUMP JUMPDEST PUSH1 0x40 DUP1 MLOAD PUSH1 0x80 DUP2 ADD DUP3 MSTORE DUP5 DUP2 MSTORE PUSH1 0x20 DUP2 ADD DUP4 DUP2 MSTORE PUSH1 0x0 SWAP3 DUP3 ADD DUP4 DUP2 MSTORE PUSH1 0x60 DUP4 ADD DUP5 DUP2 MSTORE PUSH1 0x1 DUP1 SLOAD DUP1 DUP3 ADD DUP3 SSTORE DUP2 DUP8 MSTORE SWAP5 MLOAD PUSH32 0xB10E2D527612073B26EECDFD717E6A320CF44B4AFAC2B0732D9FCBE2B7FA0CF6 PUSH1 0x4 SWAP1 SWAP7 MUL SWAP6 DUP7 ADD SSTORE SWAP3 MLOAD PUSH32 0xB10E2D527612073B26EECDFD717E6A320CF44B4AFAC2B0732D9FCBE2B7FA0CF7 DUP6 ADD SSTORE SWAP1 MLOAD PUSH32 0xB10E2D527612073B26EECDFD717E6A320CF44B4AFAC2B0732D9FCBE2B7FA0CF8 DUP5 ADD DUP1 SLOAD PUSH1 0xFF NOT AND SWAP2 ISZERO ISZERO SWAP2 SWAP1 SWAP2 OR SWAP1 SSTORE MLOAD PUSH32 0xB10E2D527612073B26EECDFD717E6A320CF44B4AFAC2B0732D9FCBE2B7FA0CF9 SWAP1 SWAP3 ADD SWAP2 SWAP1 SWAP2 SSTORE DUP1 SLOAD SWAP3 SWAP4 POP SWAP1 SWAP2 PUSH2 0xA31 SWAP2 SWAP1 PUSH2 0xD01 JUMP JUMPDEST CALLER PUSH1 0x0 SWAP1 DUP2 MSTORE PUSH1 0x3 PUSH1 0x20 MSTORE PUSH1 0x40 DUP2 KECCAK256 DUP1 SLOAD SWAP3 SWAP4 POP SWAP1 PUSH2 0xA4F DUP4 PUSH2 0xD61 JUMP JUMPDEST SWAP1 SWAP2 SSTORE POP POP PUSH1 0x40 DUP1 MLOAD DUP4 DUP2 MSTORE CALLER PUSH1 0x20 DUP3 ADD MSTORE DUP5 SWAP2 DUP4 SWAP2 PUSH32 0xD10E139CB66868D34703C86CE0C8D254A578F1BB9BA2992CA5CDAD3C3E2A8E71 SWAP2 ADD PUSH1 0x40 MLOAD DUP1 SWAP2 SUB SWAP1 LOG3 POP POP POP JUMP JUMPDEST PUSH1 0x0 PUSH1 0x20 DUP3 DUP5 SUB SLT ISZERO PUSH2 0xAA7 JUMPI PUSH1 0x0 DUP1 REVERT JUMPDEST DUP2 CALLDATALOAD PUSH1 0x1 PUSH1 0x1 PUSH1 0xA0 SHL SUB DUP2 AND DUP2 EQ PUSH2 0xABE JUMPI PUSH1 0x0 DUP1 REVERT JUMPDEST SWAP4 SWAP3 POP POP POP JUMP JUMPDEST PUSH1 0x3 DUP2 LT PUSH2 0xAD2 JUMPI PUSH1 0x0 DUP1 REVERT JUMPDEST POP JUMP JUMPDEST PUSH1 0x0 DUP1 PUSH1 0x0 DUP1 PUSH1 0x0 DUP1 PUSH1 0x0 PUSH1 0xE0 DUP9 DUP11 SUB SLT ISZERO PUSH2 0xAF0 JUMPI PUSH1 0x0 DUP1 REVERT JUMPDEST DUP8 CALLDATALOAD SWAP7 POP PUSH1 0x20 DUP9 ADD CALLDATALOAD PUSH2 0xB02 DUP2 PUSH2 0xAC5 JUMP JUMPDEST SWAP6 POP PUSH1 0x40 DUP9 ADD CALLDATALOAD PUSH2 0xB12 DUP2 PUSH2 0xAC5 JUMP JUMPDEST SWAP5 POP PUSH1 0x60 DUP9 ADD CALLDATALOAD PUSH1 0xFF DUP2 AND DUP2 EQ PUSH2 0xB28 JUMPI PUSH1 0x0 DUP1 REVERT JUMPDEST SWAP7 SWAP10 SWAP6 SWAP9 POP SWAP4 SWAP7 PUSH1 0x80 DUP2 ADD CALLDATALOAD SWAP6 PUSH1 0xA0 DUP3 ADD CALLDATALOAD SWAP6 POP PUSH1 0xC0 SWAP1 SWAP2 ADD CALLDATALOAD SWAP4 POP SWAP2 POP POP JUMP JUMPDEST PUSH1 0x0 PUSH1 0x20 DUP3 DUP5 SUB SLT ISZERO PUSH2 0xB5B JUMPI PUSH1 0x0 DUP1 REVERT JUMPDEST POP CALLDATALOAD SWAP2 SWAP1 POP JUMP JUMPDEST PUSH4 0x4E487B71 PUSH1 0xE0 SHL PUSH1 0x0 MSTORE PUSH1 0x21 PUSH1 0x4 MSTORE PUSH1 0x24 PUSH1 0x0 REVERT JUMPDEST PUSH1 0x3 DUP2 LT PUSH2 0xAD2 JUMPI PUSH4 0x4E487B71 PUSH1 0xE0 SHL PUSH1 0x0 MSTORE PUSH1 0x21 PUSH1 0x4 MSTORE PUSH1 0x24 PUSH1 0x0 REVERT JUMPDEST PUSH2 0xB9F DUP2 PUSH2 0xB78 JUMP JUMPDEST SWAP1 MSTORE JUMP JUMPDEST DUP2 MLOAD DUP2 MSTORE PUSH1 0x20 DUP1 DUP4 ADD MLOAD PUSH2 0x140 DUP4 ADD SWAP2 PUSH2 0xBBF SWAP1 DUP5 ADD DUP3 PUSH2 0xB96 JUMP JUMPDEST POP PUSH1 0x40 DUP4 ADD MLOAD PUSH2 0xBD2 PUSH1 0x40 DUP5 ADD DUP3 PUSH2 0xB96 JUMP JUMPDEST POP PUSH1 0x60 DUP4 ADD MLOAD PUSH2 0xBE7 PUSH1 0x60 DUP5 ADD DUP3 PUSH1 0xFF AND SWAP1 MSTORE JUMP JUMPDEST POP PUSH1 0x80 DUP4 ADD MLOAD PUSH1 0x80 DUP4 ADD MSTORE PUSH1 0xA0 DUP4 ADD MLOAD PUSH1 0xA0 DUP4 ADD MSTORE PUSH1 0xC0 DUP4 ADD MLOAD PUSH1 0xC0 DUP4 ADD MSTORE PUSH1 0xE0 DUP4 ADD MLOAD PUSH1 0xE0 DUP4 ADD MSTORE PUSH2 0x100 DUP1 DUP5 ADD MLOAD PUSH2 0xC2B DUP3 DUP6 ADD DUP3 PUSH1 0x1 PUSH1 0x1 PUSH1 0xA0 SHL SUB AND SWAP1 MSTORE JUMP JUMPDEST POP POP PUSH2 0x120 SWAP3 DUP4 ADD MLOAD ISZERO ISZERO SWAP2 SWAP1 SWAP3 ADD MSTORE SWAP1 JUMP JUMPDEST DUP11 DUP2 MSTORE PUSH2 0x140 DUP2 ADD PUSH2 0xC4F DUP12 PUSH2 0xB78 JUMP JUMPDEST DUP11 PUSH1 0x20 DUP4 ADD MSTORE PUSH2 0xC5E DUP11 PUSH2 0xB78 JUMP JUMPDEST PUSH1 0x40 DUP3 ADD SWAP10 SWAP1 SWAP10 MSTORE PUSH1 0xFF SWAP8 SWAP1 SWAP8 AND PUSH1 0x60 DUP9 ADD MSTORE PUSH1 0x80 DUP8 ADD SWAP6 SWAP1 SWAP6 MSTORE PUSH1 0xA0 DUP7 ADD SWAP4 SWAP1 SWAP4 MSTORE PUSH1 0xC0 DUP6 ADD SWAP2 SWAP1 SWAP2 MSTORE PUSH1 0xE0 DUP5 ADD MSTORE PUSH1 0x1 PUSH1 0x1 PUSH1 0xA0 SHL SUB AND PUSH2 0x100 DUP4 ADD MSTORE ISZERO ISZERO PUSH2 0x120 SWAP1 SWAP2 ADD MSTORE SWAP3 SWAP2 POP POP JUMP JUMPDEST PUSH4 0x4E487B71 PUSH1 0xE0 SHL PUSH1 0x0 MSTORE PUSH1 0x11 PUSH1 0x4 MSTORE PUSH1 0x24 PUSH1 0x0 REVERT JUMPDEST DUP1 DUP3 MUL DUP2 ISZERO DUP3 DUP3 DIV DUP5 EQ OR PUSH2 0xCD9 JUMPI PUSH2 0xCD9 PUSH2 0xCAC JUMP JUMPDEST SWAP3 SWAP2 POP POP JUMP JUMPDEST PUSH1 0x0 DUP3 PUSH2 0xCFC JUMPI PUSH4 0x4E487B71 PUSH1 0xE0 SHL PUSH1 0x0 MSTORE PUSH1 0x12 PUSH1 0x4 MSTORE PUSH1 0x24 PUSH1 0x0 REVERT JUMPDEST POP DIV SWAP1 JUMP JUMPDEST DUP2 DUP2 SUB DUP2 DUP2 GT ISZERO PUSH2 0xCD9 JUMPI PUSH2 0xCD9 PUSH2 0xCAC JUMP JUMPDEST PUSH1 0x80 DUP2 ADD PUSH2 0xD21 DUP7 PUSH2 0xB78 JUMP JUMPDEST DUP6 DUP3 MSTORE PUSH2 0xD2D DUP6 PUSH2 0xB78 JUMP JUMPDEST DUP5 PUSH1 0x20 DUP4 ADD MSTORE PUSH1 0xFF DUP5 AND PUSH1 0x40 DUP4 ADD MSTORE DUP3 PUSH1 0x60 DUP4 ADD MSTORE SWAP6 SWAP5 POP POP POP POP POP JUMP JUMPDEST PUSH4 0x4E487B71 PUSH1 0xE0 SHL PUSH1 0x0 MSTORE PUSH1 0x32 PUSH1 0x4 MSTORE PUSH1 0x24 PUSH1 0x0 REVERT JUMPDEST PUSH1 0x0 PUSH1 0x1 DUP3 ADD PUSH2 0xD73 JUMPI PUSH2 0xD73 PUSH2 0xCAC JUMP JUMPDEST POP PUSH1 0x1 ADD SWAP1 JUMP JUMPDEST DUP1 DUP3 ADD DUP1 DUP3 GT ISZERO PUSH2 0xCD9 JUMPI PUSH2 0xCD9 PUSH2 0xCAC JUMP INVALID LOG2 PUSH5 0x6970667358 0x22 SLT KECCAK256 0x2D SWAP4 SWAP3 0xE3 0xCB 0x2B 0xC6 CALLDATACOPY 0xB4 PUSH17 0x36391D180FB7535A7F61E780EE32D6C33E 0x2A 0xE5 0xED SWAP8 CALLDATACOPY PUSH5 0x736F6C6343 STOP ADDMOD EQ STOP CALLER "},"methodIdentifiers":{"decisions(uint256)":"b829df82","fulfillSLA(uint256)":"e83e4d63","fulfilledSLAs(address)":"f5482901","getDecision(uint256)":"af754848","getProfile(address)":"0f53a470","getSLA(uint256)":"bf7792d2","logDecision(bytes32,uint8,uint8,uint8,bytes32,bytes32,bytes32)":"4c97f02d","opsScore(address)":"cdc6c857","slaCommitments(uint256)":"bee3b229","totalDecisions()":"0c96a61a","totalSLACommitments()":"64d1e7ec","totalSLAs(address)":"beed071f"}}}}}