{
  "_format": "hh-sol-artifact-1",
  "contractName": "SimpleStorage",
  "sourceName": "contracts/SimpleStorage.sol",
  "abi": [
    {
      "inputs": [
        {
          "internalType": "uint256",
          "name": "_initialValue",
          "type": "uint256"
        }
      ],
      "stateMutability": "nonpayable",
      "type": "constructor"
    },
    {
      "anonymous": false,
      "inputs": [
        {
          "indexed": true,
          "internalType": "address",
          "name": "oldOwner",
          "type": "address"
        },
        {
          "indexed": true,
          "internalType": "address",
          "name": "newOwner",
          "type": "address"
        }
      ],
      "name": "OwnershipTransferred",
      "type": "event"
    },
    {
      "anonymous": false,
      "inputs": [
        {
          "indexed": true,
          "internalType": "address",
          "name": "updatedBy",
          "type": "address"
        },
        {
          "indexed": false,
          "internalType": "uint256",
          "name": "oldValue",
          "type": "uint256"
        },
        {
          "indexed": false,
          "internalType": "uint256",
          "name": "newValue",
          "type": "uint256"
        }
      ],
      "name": "ValueUpdated",
      "type": "event"
    },
    {
      "inputs": [],
      "name": "owner",
      "outputs": [
        {
          "internalType": "address",
          "name": "",
          "type": "address"
        }
      ],
      "stateMutability": "view",
      "type": "function"
    },
    {
      "inputs": [
        {
          "internalType": "uint256",
          "name": "_newValue",
          "type": "uint256"
        }
      ],
      "name": "setValue",
      "outputs": [],
      "stateMutability": "nonpayable",
      "type": "function"
    },
    {
      "inputs": [
        {
          "internalType": "address",
          "name": "_newOwner",
          "type": "address"
        }
      ],
      "name": "transferOwnership",
      "outputs": [],
      "stateMutability": "nonpayable",
      "type": "function"
    },
    {
      "inputs": [],
      "name": "value",
      "outputs": [
        {
          "internalType": "uint256",
          "name": "",
          "type": "uint256"
        }
      ],
      "stateMutability": "view",
      "type": "function"
    }
  ],
  "bytecode": "0x608060405234801561001057600080fd5b5060405161039e38038061039e83398101604081905261002f9161008a565b6000818155600180546001600160a01b03191633908117909155604080519283526020830184905290917fd868b673192f9dda528795f132c7405b2b9ad12f7c1606fa39a3b4b8429624f4910160405180910390a2506100a3565b60006020828403121561009c57600080fd5b5051919050565b6102ec806100b26000396000f3fe608060405234801561001057600080fd5b506004361061004c5760003560e01c80633fa4f24514610051578063552410771461006d5780638da5cb5b14610082578063f2fde38b146100ad575b600080fd5b61005a60005481565b6040519081526020015b60405180910390f35b61008061007b366004610227565b6100c0565b005b600154610095906001600160a01b031681565b6040516001600160a01b039091168152602001610064565b6100806100bb366004610240565b61013a565b6001546001600160a01b031633146100f35760405162461bcd60e51b81526004016100ea90610270565b60405180910390fd5b6000805490829055604080518281526020810184905233917fd868b673192f9dda528795f132c7405b2b9ad12f7c1606fa39a3b4b8429624f4910160405180910390a25050565b6001546001600160a01b031633146101645760405162461bcd60e51b81526004016100ea90610270565b6001600160a01b0381166101cb5760405162461bcd60e51b815260206004820152602860248201527f53696d706c6553746f726167653a206e6577206f776e6572206973207a65726f604482015267206164647265737360c01b60648201526084016100ea565b6001546040516001600160a01b038084169216907f8be0079c531659141344cd1fd0a4f28419497f9722a3daafe3b4186f6b6457e090600090a3600180546001600160a01b0319166001600160a01b0392909216919091179055565b60006020828403121561023957600080fd5b5035919050565b60006020828403121561025257600080fd5b81356001600160a01b038116811461026957600080fd5b9392505050565b60208082526026908201527f53696d706c6553746f726167653a2063616c6c6572206973206e6f74207468656040820152651037bbb732b960d11b60608201526080019056fea26469706673582212208040a6dcff5468ba684d65c98120fe99dbe69ea15432c1b813ba33694a95c04564736f6c63430008140033",
  "linkReferences": {},
  "deployedLinkReferences": {}
}