{
  "_format": "hh-sol-artifact-1",
  "contractName": "OperationsRegistry",
  "sourceName": "contracts/OperationsRegistry.sol",
  "abi": [
    {
      "anonymous": false,
      "inputs": [
        {
          "indexed": true,
          "internalType": "uint256",
          "name": "id",
          "type": "uint256"
        },
        {
          "indexed": false,
          "internalType": "enum OperationsRegistry.ModuleType",
          "name": "module",
          "type": "uint8"
        },
        {
          "indexed": false,
          "internalType": "enum OperationsRegistry.Verdict",
          "name": "verdict",
          "type": "uint8"
        },
        {
          "indexed": false,
          "internalType": "uint8",
          "name": "confidence",
          "type": "uint8"
        },
        {
          "indexed": false,
          "internalType": "uint256",
          "name": "timestamp",
          "type": "uint256"
        }
      ],
      "name": "DecisionLogged",
      "type": "event"
    },
    {
      "anonymous": false,
      "inputs": [
        {
          "indexed": true,
          "internalType": "address",
          "name": "operator",
          "type": "address"
        },
        {
          "indexed": false,
          "internalType": "uint256",
          "name": "newScore",
          "type": "uint256"
        },
        {
          "indexed": false,
          "internalType": "bool",
          "name": "increased",
          "type": "bool"
        }
      ],
      "name": "ReputationUpdated",
      "type": "event"
    },
    {
      "anonymous": false,
      "inputs": [
        {
          "indexed": true,
          "internalType": "uint256",
          "name": "slaId",
          "type": "uint256"
        },
        {
          "indexed": false,
          "internalType": "address",
          "name": "fulfiller",
          "type": "address"
        },
        {
          "indexed": false,
          "internalType": "uint256",
          "name": "hoursRemaining",
          "type": "uint256"
        }
      ],
      "name": "SLAFulfilled",
      "type": "event"
    },
    {
      "anonymous": false,
      "inputs": [
        {
          "indexed": true,
          "internalType": "uint256",
          "name": "slaId",
          "type": "uint256"
        },
        {
          "indexed": true,
          "internalType": "uint256",
          "name": "decisionId",
          "type": "uint256"
        },
        {
          "indexed": false,
          "internalType": "uint256",
          "name": "deadline",
          "type": "uint256"
        },
        {
          "indexed": false,
          "internalType": "address",
          "name": "operator",
          "type": "address"
        }
      ],
      "name": "SLAMinted",
      "type": "event"
    },
    {
      "inputs": [
        {
          "internalType": "uint256",
          "name": "",
          "type": "uint256"
        }
      ],
      "name": "decisions",
      "outputs": [
        {
          "internalType": "bytes32",
          "name": "inputHash",
          "type": "bytes32"
        },
        {
          "internalType": "enum OperationsRegistry.ModuleType",
          "name": "module",
          "type": "uint8"
        },
        {
          "internalType": "enum OperationsRegistry.Verdict",
          "name": "verdict",
          "type": "uint8"
        },
        {
          "internalType": "uint8",
          "name": "confidence",
          "type": "uint8"
        },
        {
          "internalType": "bytes32",
          "name": "advocateHash",
          "type": "bytes32"
        },
        {
          "internalType": "bytes32",
          "name": "skepticHash",
          "type": "bytes32"
        },
        {
          "internalType": "bytes32",
          "name": "judgeHash",
          "type": "bytes32"
        },
        {
          "internalType": "uint256",
          "name": "timestamp",
          "type": "uint256"
        },
        {
          "internalType": "address",
          "name": "operator",
          "type": "address"
        },
        {
          "internalType": "bool",
          "name": "slaCreated",
          "type": "bool"
        }
      ],
      "stateMutability": "view",
      "type": "function"
    },
    {
      "inputs": [
        {
          "internalType": "uint256",
          "name": "_slaId",
          "type": "uint256"
        }
      ],
      "name": "fulfillSLA",
      "outputs": [],
      "stateMutability": "nonpayable",
      "type": "function"
    },
    {
      "inputs": [
        {
          "internalType": "address",
          "name": "",
          "type": "address"
        }
      ],
      "name": "fulfilledSLAs",
      "outputs": [
        {
          "internalType": "uint256",
          "name": "",
          "type": "uint256"
        }
      ],
      "stateMutability": "view",
      "type": "function"
    },
    {
      "inputs": [
        {
          "internalType": "uint256",
          "name": "id",
          "type": "uint256"
        }
      ],
      "name": "getDecision",
      "outputs": [
        {
          "components": [
            {
              "internalType": "bytes32",
              "name": "inputHash",
              "type": "bytes32"
            },
            {
              "internalType": "enum OperationsRegistry.ModuleType",
              "name": "module",
              "type": "uint8"
            },
            {
              "internalType": "enum OperationsRegistry.Verdict",
              "name": "verdict",
              "type": "uint8"
            },
            {
              "internalType": "uint8",
              "name": "confidence",
              "type": "uint8"
            },
            {
              "internalType": "bytes32",
              "name": "advocateHash",
              "type": "bytes32"
            },
            {
              "internalType": "bytes32",
              "name": "skepticHash",
              "type": "bytes32"
            },
            {
              "internalType": "bytes32",
              "name": "judgeHash",
              "type": "bytes32"
            },
            {
              "internalType": "uint256",
              "name": "timestamp",
              "type": "uint256"
            },
            {
              "internalType": "address",
              "name": "operator",
              "type": "address"
            },
            {
              "internalType": "bool",
              "name": "slaCreated",
              "type": "bool"
            }
          ],
          "internalType": "struct OperationsRegistry.Decision",
          "name": "",
          "type": "tuple"
        }
      ],
      "stateMutability": "view",
      "type": "function"
    },
    {
      "inputs": [
        {
          "internalType": "address",
          "name": "operator",
          "type": "address"
        }
      ],
      "name": "getProfile",
      "outputs": [
        {
          "internalType": "uint256",
          "name": "score",
          "type": "uint256"
        },
        {
          "internalType": "uint256",
          "name": "total",
          "type": "uint256"
        },
        {
          "internalType": "uint256",
          "name": "fulfilled",
          "type": "uint256"
        },
        {
          "internalType": "uint256",
          "name": "fulfillRate",
          "type": "uint256"
        }
      ],
      "stateMutability": "view",
      "type": "function"
    },
    {
      "inputs": [
        {
          "internalType": "uint256",
          "name": "id",
          "type": "uint256"
        }
      ],
      "name": "getSLA",
      "outputs": [
        {
          "components": [
            {
              "internalType": "uint256",
              "name": "decisionId",
              "type": "uint256"
            },
            {
              "internalType": "uint256",
              "name": "deadline",
              "type": "uint256"
            },
            {
              "internalType": "bool",
              "name": "fulfilled",
              "type": "bool"
            },
            {
              "internalType": "uint256",
              "name": "fulfilledAt",
              "type": "uint256"
            }
          ],
          "internalType": "struct OperationsRegistry.SLACommitment",
          "name": "",
          "type": "tuple"
        }
      ],
      "stateMutability": "view",
      "type": "function"
    },
    {
      "inputs": [
        {
          "internalType": "bytes32",
          "name": "_inputHash",
          "type": "bytes32"
        },
        {
          "internalType": "enum OperationsRegistry.ModuleType",
          "name": "_module",
          "type": "uint8"
        },
        {
          "internalType": "enum OperationsRegistry.Verdict",
          "name": "_verdict",
          "type": "uint8"
        },
        {
          "internalType": "uint8",
          "name": "_confidence",
          "type": "uint8"
        },
        {
          "internalType": "bytes32",
          "name": "_advocateHash",
          "type": "bytes32"
        },
        {
          "internalType": "bytes32",
          "name": "_skepticHash",
          "type": "bytes32"
        },
        {
          "internalType": "bytes32",
          "name": "_judgeHash",
          "type": "bytes32"
        }
      ],
      "name": "logDecision",
      "outputs": [
        {
          "internalType": "uint256",
          "name": "decisionId",
          "type": "uint256"
        }
      ],
      "stateMutability": "nonpayable",
      "type": "function"
    },
    {
      "inputs": [
        {
          "internalType": "address",
          "name": "",
          "type": "address"
        }
      ],
      "name": "opsScore",
      "outputs": [
        {
          "internalType": "uint256",
          "name": "",
          "type": "uint256"
        }
      ],
      "stateMutability": "view",
      "type": "function"
    },
    {
      "inputs": [
        {
          "internalType": "uint256",
          "name": "",
          "type": "uint256"
        }
      ],
      "name": "slaCommitments",
      "outputs": [
        {
          "internalType": "uint256",
          "name": "decisionId",
          "type": "uint256"
        },
        {
          "internalType": "uint256",
          "name": "deadline",
          "type": "uint256"
        },
        {
          "internalType": "bool",
          "name": "fulfilled",
          "type": "bool"
        },
        {
          "internalType": "uint256",
          "name": "fulfilledAt",
          "type": "uint256"
        }
      ],
      "stateMutability": "view",
      "type": "function"
    },
    {
      "inputs": [],
      "name": "totalDecisions",
      "outputs": [
        {
          "internalType": "uint256",
          "name": "",
          "type": "uint256"
        }
      ],
      "stateMutability": "view",
      "type": "function"
    },
    {
      "inputs": [],
      "name": "totalSLACommitments",
      "outputs": [
        {
          "internalType": "uint256",
          "name": "",
          "type": "uint256"
        }
      ],
      "stateMutability": "view",
      "type": "function"
    },
    {
      "inputs": [
        {
          "internalType": "address",
          "name": "",
          "type": "address"
        }
      ],
      "name": "totalSLAs",
      "outputs": [
        {
          "internalType": "uint256",
          "name": "",
          "type": "uint256"
        }
      ],
      "stateMutability": "view",
      "type": "function"
    }
  ],
  "bytecode": "0x608060405234801561001057600080fd5b50610dc3806100206000396000f3fe608060405234801561001057600080fd5b50600436106100b45760003560e01c8063bee3b22911610071578063bee3b22914610167578063beed071f146101a0578063bf7792d2146101c0578063cdc6c85714610208578063e83e4d6314610228578063f54829011461023d57600080fd5b80630c96a61a146100b95780630f53a470146100d05780634c97f02d1461010357806364d1e7ec14610116578063af7548481461011e578063b829df821461013e575b600080fd5b6000545b6040519081526020015b60405180910390f35b6100e36100de366004610a95565b61025d565b6040805194855260208501939093529183015260608201526080016100c7565b6100bd610111366004610ad5565b6102b8565b6001546100bd565b61013161012c366004610b49565b6104e3565b6040516100c79190610ba3565b61015161014c366004610b49565b61064b565b6040516100c79a99989796959493929190610c3e565b61017a610175366004610b49565b6106bf565b6040805194855260208501939093529015159183019190915260608201526080016100c7565b6100bd6101ae366004610a95565b60036020526000908152604090205481565b6101d36101ce366004610b49565b6106fc565b6040516100c7919081518152602080830151908201526040808301511515908201526060918201519181019190915260800190565b6100bd610216366004610a95565b60026020526000908152604090205481565b61023b610236366004610b49565b610788565b005b6100bd61024b366004610a95565b60046020526000908152604090205481565b6001600160a01b03811660009081526002602090815260408083205460038352818420546004909352908320549092826102985760006102af565b826102a583612710610cc2565b6102af9190610cdf565b90509193509193565b6000806040518061014001604052808a81526020018960028111156102df576102df610b62565b81526020018860028111156102f6576102f6610b62565b815260ff88166020808301919091526040820188905260608201879052608082018690524260a08301523360c0830152600060e09092018290528354600181810186559483529181902083516007909302019182558201518184018054939492939192909160ff19169083600281111561037257610372610b62565b0217905550604082015160018201805461ff00191661010083600281111561039c5761039c610b62565b021790555060608201516001808301805460ff909316620100000262ff000019909316929092179091556080830151600283015560a0830151600383015560c0830151600483015560e0830151600583015561010083015160069092018054610120909401511515600160a01b026001600160a81b03199094166001600160a01b03909316929092179290921790556000546104389190610d01565b9050807f809e193a15b49354e266a4a7e34fe9cfcfc126af57622333b1c4ddaba6579da3888888426040516104709493929190610d14565b60405180910390a2600086600281111561048c5761048c610b62565b036104d85761049a81610933565b6001600082815481106104af576104af610d4b565b906000526020600020906007020160060160146101000a81548160ff0219169083151502179055505b979650505050505050565b61053a6040805161014081019091526000808252602082019081526020016000815260006020820181905260408201819052606082018190526080820181905260a0820181905260c0820181905260e09091015290565b6000828154811061054d5761054d610d4b565b906000526020600020906007020160405180610140016040529081600082015481526020016001820160009054906101000a900460ff16600281111561059557610595610b62565b60028111156105a6576105a6610b62565b81526020016001820160019054906101000a900460ff1660028111156105ce576105ce610b62565b60028111156105df576105df610b62565b8152600182015460ff6201000090910481166020830152600283015460408301526003830154606083015260048301546080830152600583015460a08301526006909201546001600160a01b03811660c0830152600160a01b9004909116151560e09091015292915050565b6000818154811061065b57600080fd5b6000918252602090912060079091020180546001820154600283015460038401546004850154600586015460069096015494965060ff8085169661010086048216966201000090960482169590916001600160a01b03821691600160a01b9004168a565b600181815481106106cf57600080fd5b600091825260209091206004909102018054600182015460028301546003909301549193509160ff169084565b61072960405180608001604052806000815260200160008152602001600015158152602001600081525090565b6001828154811061073c5761073c610d4b565b600091825260209182902060408051608081018252600490930290910180548352600181015493830193909352600283015460ff16151590820152600390910154606082015292915050565b60006001828154811061079d5761079d610d4b565b60009182526020909120600490910201600281015490915060ff16156107fd5760405162461bcd60e51b8152602060048201526011602482015270105b1c9958591e48199d5b199a5b1b1959607a1b604482015260640160405180910390fd5b60028101805460ff1916600117905542600382015533600090815260046020526040812080549161082d83610d61565b90915550506001810154600a9060009042101561087a57610e104284600101546108579190610d01565b6108619190610cdf565b9050600c81111561087a57610877600583610d7a565b91505b33600090815260026020526040812054610895908490610d7a565b905060648111156108a4575060645b336000818152600260209081526040918290208490558151928352820184905286917fa4a7e91b7ba2b52745eabce1cd032afb20ea7e68814d1a17bd7697875af837a7910160405180910390a2604080518281526001602082015233917fdb3885afbba6debf9c1bda35746ffcd3e3c749b3742be7c9a0904981b5befb99910160405180910390a25050505050565b60006109424262015180610d7a565b604080516080810182528481526020810183815260009282018381526060830184815260018054808201825581875294517fb10e2d527612073b26eecdfd717e6a320cf44b4afac2b0732d9fcbe2b7fa0cf660049096029586015592517fb10e2d527612073b26eecdfd717e6a320cf44b4afac2b0732d9fcbe2b7fa0cf785015590517fb10e2d527612073b26eecdfd717e6a320cf44b4afac2b0732d9fcbe2b7fa0cf88401805460ff1916911515919091179055517fb10e2d527612073b26eecdfd717e6a320cf44b4afac2b0732d9fcbe2b7fa0cf99092019190915580549293509091610a319190610d01565b336000908152600360205260408120805492935090610a4f83610d61565b909155505060408051838152336020820152849183917fd10e139cb66868d34703c86ce0c8d254a578f1bb9ba2992ca5cdad3c3e2a8e71910160405180910390a3505050565b600060208284031215610aa757600080fd5b81356001600160a01b0381168114610abe57600080fd5b9392505050565b60038110610ad257600080fd5b50565b600080600080600080600060e0888a031215610af057600080fd5b873596506020880135610b0281610ac5565b95506040880135610b1281610ac5565b9450606088013560ff81168114610b2857600080fd5b9699959850939660808101359560a0820135955060c0909101359350915050565b600060208284031215610b5b57600080fd5b5035919050565b634e487b7160e01b600052602160045260246000fd5b60038110610ad257634e487b7160e01b600052602160045260246000fd5b610b9f81610b78565b9052565b81518152602080830151610140830191610bbf90840182610b96565b506040830151610bd26040840182610b96565b506060830151610be7606084018260ff169052565b506080830151608083015260a083015160a083015260c083015160c083015260e083015160e083015261010080840151610c2b828501826001600160a01b03169052565b5050610120928301511515919092015290565b8a81526101408101610c4f8b610b78565b8a6020830152610c5e8a610b78565b604082019990995260ff979097166060880152608087019590955260a086019390935260c085019190915260e08401526001600160a01b031661010083015215156101209091015292915050565b634e487b7160e01b600052601160045260246000fd5b8082028115828204841417610cd957610cd9610cac565b92915050565b600082610cfc57634e487b7160e01b600052601260045260246000fd5b500490565b81810381811115610cd957610cd9610cac565b60808101610d2186610b78565b858252610d2d85610b78565b84602083015260ff8416604083015282606083015295945050505050565b634e487b7160e01b600052603260045260246000fd5b600060018201610d7357610d73610cac565b5060010190565b80820180821115610cd957610cd9610cac56fea26469706673582212202d9392e3cb2bc637b47036391d180fb7535a7f61e780ee32d6c33e2ae5ed973764736f6c63430008140033",
  "linkReferences": {},
  "deployedLinkReferences": {}
}