{
  "_format": "hh-sol-artifact-1",
  "contractName": "OperationsRegistry",
  "sourceName": "contracts/OperationsRegistry.sol",
  "abi": [
    {
      "anonymous": false,
      "inputs": [
        {
          "indexed": true,
          "internalType": "uint256",
          "name": "id",
          "type": "uint256"
        },
        {
          "indexed": false,
          "internalType": "enum OperationsRegistry.ModuleType",
          "name": "module",
          "type": "uint8"
        },
        {
          "indexed": false,
          "internalType": "enum OperationsRegistry.Verdict",
          "name": "verdict",
          "type": "uint8"
        },
        {
          "indexed": false,
          "internalType": "uint8",
          "name": "confidence",
          "type": "uint8"
        },
        {
          "indexed": false,
          "internalType": "uint256",
          "name": "timestamp",
          "type": "uint256"
        }
      ],
      "name": "DecisionLogged",
      "type": "event"
    },
    {
      "anonymous": false,
      "inputs": [
        {
          "indexed": true,
          "internalType": "address",
          "name": "operator",
          "type": "address"
        },
        {
          "indexed": false,
          "internalType": "uint256",
          "name": "newScore",
          "type": "uint256"
        },
        {
          "indexed": false,
          "internalType": "bool",
          "name": "increased",
          "type": "bool"
        }
      ],
      "name": "ReputationUpdated",
      "type": "event"
    },
    {
      "anonymous": false,
      "inputs": [
        {
          "indexed": true,
          "internalType": "uint256",
          "name": "slaId",
          "type": "uint256"
        },
        {
          "indexed": false,
          "internalType": "address",
          "name": "fulfiller",
          "type": "address"
        },
        {
          "indexed": false,
          "internalType": "uint256",
          "name": "hoursRemaining",
          "type": "uint256"
        }
      ],
      "name": "SLAFulfilled",
      "type": "event"
    },
    {
      "anonymous": false,
      "inputs": [
        {
          "indexed": true,
          "internalType": "uint256",
          "name": "slaId",
          "type": "uint256"
        },
        {
          "indexed": true,
          "internalType": "uint256",
          "name": "decisionId",
          "type": "uint256"
        },
        {
          "indexed": false,
          "internalType": "uint256",
          "name": "deadline",
          "type": "uint256"
        },
        {
          "indexed": false,
          "internalType": "address",
          "name": "operator",
          "type": "address"
        }
      ],
      "name": "SLAMinted",
      "type": "event"
    },
    {
      "inputs": [
        {
          "internalType": "uint256",
          "name": "",
          "type": "uint256"
        }
      ],
      "name": "decisions",
      "outputs": [
        {
          "internalType": "bytes32",
          "name": "inputHash",
          "type": "bytes32"
        },
        {
          "internalType": "enum OperationsRegistry.ModuleType",
          "name": "module",
          "type": "uint8"
        },
        {
          "internalType": "enum OperationsRegistry.Verdict",
          "name": "verdict",
          "type": "uint8"
        },
        {
          "internalType": "uint8",
          "name": "confidence",
          "type": "uint8"
        },
        {
          "internalType": "bytes32",
          "name": "advocateHash",
          "type": "bytes32"
        },
        {
          "internalType": "bytes32",
          "name": "skepticHash",
          "type": "bytes32"
        },
        {
          "internalType": "uint256",
          "name": "timestamp",
          "type": "uint256"
        },
        {
          "internalType": "address",
          "name": "operator",
          "type": "address"
        },
        {
          "internalType": "bool",
          "name": "slaCreated",
          "type": "bool"
        }
      ],
      "stateMutability": "view",
      "type": "function"
    },
    {
      "inputs": [
        {
          "internalType": "uint256",
          "name": "_slaId",
          "type": "uint256"
        }
      ],
      "name": "fulfillSLA",
      "outputs": [],
      "stateMutability": "nonpayable",
      "type": "function"
    },
    {
      "inputs": [
        {
          "internalType": "address",
          "name": "",
          "type": "address"
        }
      ],
      "name": "fulfilledSLAs",
      "outputs": [
        {
          "internalType": "uint256",
          "name": "",
          "type": "uint256"
        }
      ],
      "stateMutability": "view",
      "type": "function"
    },
    {
      "inputs": [
        {
          "internalType": "uint256",
          "name": "id",
          "type": "uint256"
        }
      ],
      "name": "getDecision",
      "outputs": [
        {
          "components": [
            {
              "internalType": "bytes32",
              "name": "inputHash",
              "type": "bytes32"
            },
            {
              "internalType": "enum OperationsRegistry.ModuleType",
              "name": "module",
              "type": "uint8"
            },
            {
              "internalType": "enum OperationsRegistry.Verdict",
              "name": "verdict",
              "type": "uint8"
            },
            {
              "internalType": "uint8",
              "name": "confidence",
              "type": "uint8"
            },
            {
              "internalType": "bytes32",
              "name": "advocateHash",
              "type": "bytes32"
            },
            {
              "internalType": "bytes32",
              "name": "skepticHash",
              "type": "bytes32"
            },
            {
              "internalType": "uint256",
              "name": "timestamp",
              "type": "uint256"
            },
            {
              "internalType": "address",
              "name": "operator",
              "type": "address"
            },
            {
              "internalType": "bool",
              "name": "slaCreated",
              "type": "bool"
            }
          ],
          "internalType": "struct OperationsRegistry.Decision",
          "name": "",
          "type": "tuple"
        }
      ],
      "stateMutability": "view",
      "type": "function"
    },
    {
      "inputs": [
        {
          "internalType": "address",
          "name": "operator",
          "type": "address"
        }
      ],
      "name": "getProfile",
      "outputs": [
        {
          "internalType": "uint256",
          "name": "score",
          "type": "uint256"
        },
        {
          "internalType": "uint256",
          "name": "total",
          "type": "uint256"
        },
        {
          "internalType": "uint256",
          "name": "fulfilled",
          "type": "uint256"
        },
        {
          "internalType": "uint256",
          "name": "fulfillRate",
          "type": "uint256"
        }
      ],
      "stateMutability": "view",
      "type": "function"
    },
    {
      "inputs": [
        {
          "internalType": "uint256",
          "name": "id",
          "type": "uint256"
        }
      ],
      "name": "getSLA",
      "outputs": [
        {
          "components": [
            {
              "internalType": "uint256",
              "name": "decisionId",
              "type": "uint256"
            },
            {
              "internalType": "uint256",
              "name": "deadline",
              "type": "uint256"
            },
            {
              "internalType": "bool",
              "name": "fulfilled",
              "type": "bool"
            },
            {
              "internalType": "uint256",
              "name": "fulfilledAt",
              "type": "uint256"
            }
          ],
          "internalType": "struct OperationsRegistry.SLACommitment",
          "name": "",
          "type": "tuple"
        }
      ],
      "stateMutability": "view",
      "type": "function"
    },
    {
      "inputs": [
        {
          "internalType": "bytes32",
          "name": "_inputHash",
          "type": "bytes32"
        },
        {
          "internalType": "enum OperationsRegistry.ModuleType",
          "name": "_module",
          "type": "uint8"
        },
        {
          "internalType": "enum OperationsRegistry.Verdict",
          "name": "_verdict",
          "type": "uint8"
        },
        {
          "internalType": "uint8",
          "name": "_confidence",
          "type": "uint8"
        },
        {
          "internalType": "bytes32",
          "name": "_advocateHash",
          "type": "bytes32"
        },
        {
          "internalType": "bytes32",
          "name": "_skepticHash",
          "type": "bytes32"
        }
      ],
      "name": "logDecision",
      "outputs": [
        {
          "internalType": "uint256",
          "name": "decisionId",
          "type": "uint256"
        }
      ],
      "stateMutability": "nonpayable",
      "type": "function"
    },
    {
      "inputs": [
        {
          "internalType": "address",
          "name": "",
          "type": "address"
        }
      ],
      "name": "opsScore",
      "outputs": [
        {
          "internalType": "uint256",
          "name": "",
          "type": "uint256"
        }
      ],
      "stateMutability": "view",
      "type": "function"
    },
    {
      "inputs": [
        {
          "internalType": "uint256",
          "name": "",
          "type": "uint256"
        }
      ],
      "name": "slaCommitments",
      "outputs": [
        {
          "internalType": "uint256",
          "name": "decisionId",
          "type": "uint256"
        },
        {
          "internalType": "uint256",
          "name": "deadline",
          "type": "uint256"
        },
        {
          "internalType": "bool",
          "name": "fulfilled",
          "type": "bool"
        },
        {
          "internalType": "uint256",
          "name": "fulfilledAt",
          "type": "uint256"
        }
      ],
      "stateMutability": "view",
      "type": "function"
    },
    {
      "inputs": [],
      "name": "totalDecisions",
      "outputs": [
        {
          "internalType": "uint256",
          "name": "",
          "type": "uint256"
        }
      ],
      "stateMutability": "view",
      "type": "function"
    },
    {
      "inputs": [],
      "name": "totalSLACommitments",
      "outputs": [
        {
          "internalType": "uint256",
          "name": "",
          "type": "uint256"
        }
      ],
      "stateMutability": "view",
      "type": "function"
    },
    {
      "inputs": [
        {
          "internalType": "address",
          "name": "",
          "type": "address"
        }
      ],
      "name": "totalSLAs",
      "outputs": [
        {
          "internalType": "uint256",
          "name": "",
          "type": "uint256"
        }
      ],
      "stateMutability": "view",
      "type": "function"
    }
  ],
  "bytecode": "0x608060405234801561001057600080fd5b50610d72806100206000396000f3fe608060405234801561001057600080fd5b50600436106100b45760003560e01c8063beed071f11610071578063beed071f1461018c578063bf7792d2146101ac578063cdc6c857146101f4578063e35e050414610214578063e83e4d6314610227578063f54829011461023c57600080fd5b80630c96a61a146100b95780630f53a470146100d057806364d1e7ec14610103578063af7548481461010b578063b829df821461012b578063bee3b22914610153575b600080fd5b6000545b6040519081526020015b60405180910390f35b6100e36100de366004610a6d565b61025c565b6040805194855260208501939093529183015260608201526080016100c7565b6001546100bd565b61011e610119366004610a9d565b6102b7565b6040516100c79190610aed565b61013e610139366004610a9d565b61040e565b6040516100c799989796959493929190610b7e565b610166610161366004610a9d565b61047d565b6040805194855260208501939093529015159183019190915260608201526080016100c7565b6100bd61019a366004610a6d565b60036020526000908152604090205481565b6101bf6101ba366004610a9d565b6104ba565b6040516100c7919081518152602080830151908201526040808301511515908201526060918201519181019190915260800190565b6100bd610202366004610a6d565b60026020526000908152604090205481565b6100bd610222366004610bf0565b610546565b61023a610235366004610a9d565b61075e565b005b6100bd61024a366004610a6d565b60046020526000908152604090205481565b6001600160a01b03811660009081526002602090815260408083205460038352818420546004909352908320549092826102975760006102ae565b826102a483612710610c71565b6102ae9190610c8e565b90509193509193565b6103076040805161012081019091526000808252602082019081526020016000815260006020820181905260408201819052606082018190526080820181905260a0820181905260c09091015290565b6000828154811061031a5761031a610cb0565b906000526020600020906006020160405180610120016040529081600082015481526020016001820160009054906101000a900460ff16600281111561036257610362610ab6565b600281111561037357610373610ab6565b81526020016001820160019054906101000a900460ff16600281111561039b5761039b610ab6565b60028111156103ac576103ac610ab6565b8152600182015460ff62010000909104811660208301526002830154604083015260038301546060830152600483015460808301526005909201546001600160a01b03811660a0830152600160a01b9004909116151560c09091015292915050565b6000818154811061041e57600080fd5b600091825260209091206006909102018054600182015460028301546003840154600485015460059095015493955060ff8084169561010085048216956201000090950482169490916001600160a01b03821691600160a01b90041689565b6001818154811061048d57600080fd5b600091825260209091206004909102018054600182015460028301546003909301549193509160ff169084565b6104e760405180608001604052806000815260200160008152602001600015158152602001600081525090565b600182815481106104fa576104fa610cb0565b600091825260209182902060408051608081018252600490930290910180548352600181015493830193909352600283015460ff16151590820152600390910154606082015292915050565b60008060405180610120016040528089815260200188600281111561056d5761056d610ab6565b815260200187600281111561058457610584610ab6565b815260ff871660208083019190915260408201879052606082018690524260808301523360a0830152600060c09092018290528354600181810186559483529181902083516006909302019182558201518184018054939492939192909160ff1916908360028111156105f9576105f9610ab6565b0217905550604082015160018201805461ff00191661010083600281111561062357610623610ab6565b021790555060608201516001808301805460ff909316620100000262ff000019909316929092179091556080830151600283015560a0830151600383015560c0830151600483015560e083015160059092018054610100909401511515600160a01b026001600160a81b03199094166001600160a01b03909316929092179290921790556000546106b49190610cc6565b9050807f809e193a15b49354e266a4a7e34fe9cfcfc126af57622333b1c4ddaba6579da3878787426040516106ec9493929190610cd9565b60405180910390a2600085600281111561070857610708610ab6565b03610754576107168161090b565b60016000828154811061072b5761072b610cb0565b906000526020600020906006020160050160146101000a81548160ff0219169083151502179055505b9695505050505050565b60006001828154811061077357610773610cb0565b60009182526020909120600490910201600281015490915060ff16156107d35760405162461bcd60e51b8152602060048201526011602482015270105b1c9958591e48199d5b199a5b1b1959607a1b604482015260640160405180910390fd5b60028101805460ff1916600117905542600382015533600090815260046020526040812080549161080383610d10565b90915550506001810154600a9060009042101561085057610e1042846001015461082d9190610cc6565b6108379190610c8e565b9050600c8111156108505761084d600583610d29565b91505b3360009081526002602052604081205461086b908490610d29565b90506103e881111561087c57506103e85b336000818152600260209081526040918290208490558151928352820184905286917fa4a7e91b7ba2b52745eabce1cd032afb20ea7e68814d1a17bd7697875af837a7910160405180910390a2604080518281526001602082015233917fdb3885afbba6debf9c1bda35746ffcd3e3c749b3742be7c9a0904981b5befb99910160405180910390a25050505050565b600061091a4262015180610d29565b604080516080810182528481526020810183815260009282018381526060830184815260018054808201825581875294517fb10e2d527612073b26eecdfd717e6a320cf44b4afac2b0732d9fcbe2b7fa0cf660049096029586015592517fb10e2d527612073b26eecdfd717e6a320cf44b4afac2b0732d9fcbe2b7fa0cf785015590517fb10e2d527612073b26eecdfd717e6a320cf44b4afac2b0732d9fcbe2b7fa0cf88401805460ff1916911515919091179055517fb10e2d527612073b26eecdfd717e6a320cf44b4afac2b0732d9fcbe2b7fa0cf99092019190915580549293509091610a099190610cc6565b336000908152600360205260408120805492935090610a2783610d10565b909155505060408051838152336020820152849183917fd10e139cb66868d34703c86ce0c8d254a578f1bb9ba2992ca5cdad3c3e2a8e71910160405180910390a3505050565b600060208284031215610a7f57600080fd5b81356001600160a01b0381168114610a9657600080fd5b9392505050565b600060208284031215610aaf57600080fd5b5035919050565b634e487b7160e01b600052602160045260246000fd5b60038110610aea57634e487b7160e01b600052602160045260246000fd5b50565b815181526020820151610120820190610b0581610acc565b60208301526040830151610b1881610acc565b806040840152506060830151610b33606084018260ff169052565b506080830151608083015260a083015160a083015260c083015160c083015260e0830151610b6c60e08401826001600160a01b03169052565b50610100928301511515919092015290565b8981526101208101610b8f8a610acc565b896020830152610b9e89610acc565b604082019890985260ff969096166060870152608086019490945260a085019290925260c08401526001600160a01b031660e083015215156101009091015292915050565b60038110610aea57600080fd5b60008060008060008060c08789031215610c0957600080fd5b863595506020870135610c1b81610be3565b94506040870135610c2b81610be3565b9350606087013560ff81168114610c4157600080fd5b9598949750929560808101359460a0909101359350915050565b634e487b7160e01b600052601160045260246000fd5b8082028115828204841417610c8857610c88610c5b565b92915050565b600082610cab57634e487b7160e01b600052601260045260246000fd5b500490565b634e487b7160e01b600052603260045260246000fd5b81810381811115610c8857610c88610c5b565b60808101610ce686610acc565b858252610cf285610acc565b84602083015260ff8416604083015282606083015295945050505050565b600060018201610d2257610d22610c5b565b5060010190565b80820180821115610c8857610c88610c5b56fea26469706673582212206054d67fda275565cc8cad36c4c3e935bd953d3364fad223a9dee974e82c9b5e64736f6c63430008140033",
  "linkReferences": {},
  "deployedLinkReferences": {}
}