{
  "_format": "hh-sol-artifact-1",
  "contractName": "ShardeumToken",
  "sourceName": "contracts/ShardeumToken.sol",
  "abi": [
    {
      "inputs": [
        {
          "internalType": "string",
          "name": "_name",
          "type": "string"
        },
        {
          "internalType": "string",
          "name": "_symbol",
          "type": "string"
        },
        {
          "internalType": "uint256",
          "name": "_initialSupply",
          "type": "uint256"
        }
      ],
      "stateMutability": "nonpayable",
      "type": "constructor"
    },
    {
      "anonymous": false,
      "inputs": [
        {
          "indexed": true,
          "internalType": "address",
          "name": "owner",
          "type": "address"
        },
        {
          "indexed": true,
          "internalType": "address",
          "name": "spender",
          "type": "address"
        },
        {
          "indexed": false,
          "internalType": "uint256",
          "name": "value",
          "type": "uint256"
        }
      ],
      "name": "Approval",
      "type": "event"
    },
    {
      "anonymous": false,
      "inputs": [
        {
          "indexed": true,
          "internalType": "address",
          "name": "from",
          "type": "address"
        },
        {
          "indexed": false,
          "internalType": "uint256",
          "name": "amount",
          "type": "uint256"
        }
      ],
      "name": "Burn",
      "type": "event"
    },
    {
      "anonymous": false,
      "inputs": [
        {
          "indexed": true,
          "internalType": "address",
          "name": "to",
          "type": "address"
        },
        {
          "indexed": false,
          "internalType": "uint256",
          "name": "amount",
          "type": "uint256"
        }
      ],
      "name": "Mint",
      "type": "event"
    },
    {
      "anonymous": false,
      "inputs": [
        {
          "indexed": true,
          "internalType": "address",
          "name": "from",
          "type": "address"
        },
        {
          "indexed": true,
          "internalType": "address",
          "name": "to",
          "type": "address"
        },
        {
          "indexed": false,
          "internalType": "uint256",
          "name": "value",
          "type": "uint256"
        }
      ],
      "name": "Transfer",
      "type": "event"
    },
    {
      "inputs": [
        {
          "internalType": "address",
          "name": "",
          "type": "address"
        },
        {
          "internalType": "address",
          "name": "",
          "type": "address"
        }
      ],
      "name": "allowance",
      "outputs": [
        {
          "internalType": "uint256",
          "name": "",
          "type": "uint256"
        }
      ],
      "stateMutability": "view",
      "type": "function"
    },
    {
      "inputs": [
        {
          "internalType": "address",
          "name": "spender",
          "type": "address"
        },
        {
          "internalType": "uint256",
          "name": "amount",
          "type": "uint256"
        }
      ],
      "name": "approve",
      "outputs": [
        {
          "internalType": "bool",
          "name": "",
          "type": "bool"
        }
      ],
      "stateMutability": "nonpayable",
      "type": "function"
    },
    {
      "inputs": [
        {
          "internalType": "address",
          "name": "",
          "type": "address"
        }
      ],
      "name": "balanceOf",
      "outputs": [
        {
          "internalType": "uint256",
          "name": "",
          "type": "uint256"
        }
      ],
      "stateMutability": "view",
      "type": "function"
    },
    {
      "inputs": [
        {
          "internalType": "uint256",
          "name": "amount",
          "type": "uint256"
        }
      ],
      "name": "burn",
      "outputs": [],
      "stateMutability": "nonpayable",
      "type": "function"
    },
    {
      "inputs": [],
      "name": "decimals",
      "outputs": [
        {
          "internalType": "uint8",
          "name": "",
          "type": "uint8"
        }
      ],
      "stateMutability": "view",
      "type": "function"
    },
    {
      "inputs": [
        {
          "internalType": "address",
          "name": "to",
          "type": "address"
        },
        {
          "internalType": "uint256",
          "name": "amount",
          "type": "uint256"
        }
      ],
      "name": "mint",
      "outputs": [],
      "stateMutability": "nonpayable",
      "type": "function"
    },
    {
      "inputs": [],
      "name": "name",
      "outputs": [
        {
          "internalType": "string",
          "name": "",
          "type": "string"
        }
      ],
      "stateMutability": "view",
      "type": "function"
    },
    {
      "inputs": [],
      "name": "owner",
      "outputs": [
        {
          "internalType": "address",
          "name": "",
          "type": "address"
        }
      ],
      "stateMutability": "view",
      "type": "function"
    },
    {
      "inputs": [],
      "name": "symbol",
      "outputs": [
        {
          "internalType": "string",
          "name": "",
          "type": "string"
        }
      ],
      "stateMutability": "view",
      "type": "function"
    },
    {
      "inputs": [],
      "name": "totalSupply",
      "outputs": [
        {
          "internalType": "uint256",
          "name": "",
          "type": "uint256"
        }
      ],
      "stateMutability": "view",
      "type": "function"
    },
    {
      "inputs": [
        {
          "internalType": "address",
          "name": "to",
          "type": "address"
        },
        {
          "internalType": "uint256",
          "name": "amount",
          "type": "uint256"
        }
      ],
      "name": "transfer",
      "outputs": [
        {
          "internalType": "bool",
          "name": "",
          "type": "bool"
        }
      ],
      "stateMutability": "nonpayable",
      "type": "function"
    },
    {
      "inputs": [
        {
          "internalType": "address",
          "name": "from",
          "type": "address"
        },
        {
          "internalType": "address",
          "name": "to",
          "type": "address"
        },
        {
          "internalType": "uint256",
          "name": "amount",
          "type": "uint256"
        }
      ],
      "name": "transferFrom",
      "outputs": [
        {
          "internalType": "bool",
          "name": "",
          "type": "bool"
        }
      ],
      "stateMutability": "nonpayable",
      "type": "function"
    }
  ],
  "bytecode": "0x60806040523480156200001157600080fd5b5060405162000fd838038062000fd883398101604081905262000034916200028c565b60006200004284826200038e565b5060016200005183826200038e565b50600380546001600160a01b031916339081179091556200008c906200007a6012600a6200056f565b62000086908462000587565b62000095565b505050620005b7565b6001600160a01b038216620000fc5760405162461bcd60e51b815260206004820152602360248201527f536861726465756d546f6b656e3a206d696e7420746f207a65726f206164647260448201526265737360e81b606482015260840160405180910390fd5b8060026000828254620001109190620005a1565b90915550506001600160a01b038216600090815260046020526040812080548392906200013f908490620005a1565b90915550506040518181526001600160a01b038316907f0f6798a560793a54c3bcfe86a93cde1e73087d944c0ea20544137d41213968859060200160405180910390a26040518181526001600160a01b038316906000907fddf252ad1be2c89b69c2b068fc378daa952ba7f163c4a11628f55a4df523b3ef9060200160405180910390a35050565b634e487b7160e01b600052604160045260246000fd5b600082601f830112620001ef57600080fd5b81516001600160401b03808211156200020c576200020c620001c7565b604051601f8301601f19908116603f01168101908282118183101715620002375762000237620001c7565b816040528381526020925086838588010111156200025457600080fd5b600091505b8382101562000278578582018301518183018401529082019062000259565b600093810190920192909252949350505050565b600080600060608486031215620002a257600080fd5b83516001600160401b0380821115620002ba57600080fd5b620002c887838801620001dd565b94506020860151915080821115620002df57600080fd5b50620002ee86828701620001dd565b925050604084015190509250925092565b600181811c908216806200031457607f821691505b6020821081036200033557634e487b7160e01b600052602260045260246000fd5b50919050565b601f8211156200038957600081815260208120601f850160051c81016020861015620003645750805b601f850160051c820191505b81811015620003855782815560010162000370565b5050505b505050565b81516001600160401b03811115620003aa57620003aa620001c7565b620003c281620003bb8454620002ff565b846200033b565b602080601f831160018114620003fa5760008415620003e15750858301515b600019600386901b1c1916600185901b17855562000385565b600085815260208120601f198616915b828110156200042b578886015182559484019460019091019084016200040a565b50858210156200044a5787850151600019600388901b60f8161c191681555b5050505050600190811b01905550565b634e487b7160e01b600052601160045260246000fd5b600181815b80851115620004b15781600019048211156200049557620004956200045a565b80851615620004a357918102915b93841c939080029062000475565b509250929050565b600082620004ca5750600162000569565b81620004d95750600062000569565b8160018114620004f25760028114620004fd576200051d565b600191505062000569565b60ff8411156200051157620005116200045a565b50506001821b62000569565b5060208310610133831016604e8410600b841016171562000542575081810a62000569565b6200054e838362000470565b80600019048211156200056557620005656200045a565b0290505b92915050565b60006200058060ff841683620004b9565b9392505050565b80820281158282048414176200056957620005696200045a565b808201808211156200056957620005696200045a565b610a1180620005c76000396000f3fe608060405234801561001057600080fd5b50600436106100b45760003560e01c806342966c681161007157806342966c681461015357806370a08231146101665780638da5cb5b1461018657806395d89b41146101b1578063a9059cbb146101b9578063dd62ed3e146101cc57600080fd5b806306fdde03146100b9578063095ea7b3146100d757806318160ddd146100fa57806323b872dd14610111578063313ce5671461012457806340c10f191461013e575b600080fd5b6100c16101f7565b6040516100ce9190610827565b60405180910390f35b6100ea6100e5366004610891565b610285565b60405190151581526020016100ce565b61010360025481565b6040519081526020016100ce565b6100ea61011f3660046108bb565b6102f2565b61012c601281565b60405160ff90911681526020016100ce565b61015161014c366004610891565b6103bd565b005b6101516101613660046108f7565b610434565b610103610174366004610910565b60046020526000908152604090205481565b600354610199906001600160a01b031681565b6040516001600160a01b0390911681526020016100ce565b6100c1610553565b6100ea6101c7366004610891565b610560565b6101036101da366004610932565b600560209081526000928352604080842090915290825290205481565b6000805461020490610965565b80601f016020809104026020016040519081016040528092919081815260200182805461023090610965565b801561027d5780601f106102525761010080835404028352916020019161027d565b820191906000526020600020905b81548152906001019060200180831161026057829003601f168201915b505050505081565b3360008181526005602090815260408083206001600160a01b038716808552925280832085905551919290917f8c5be1e5ebec7d5bd14f71427d1e84f3dd0314c0f7b2291e5b200ac8c7c3b925906102e09086815260200190565b60405180910390a35060015b92915050565b6001600160a01b0383166000908152600560209081526040808320338452909152812054828110156103795760405162461bcd60e51b815260206004820152602560248201527f536861726465756d546f6b656e3a20696e73756666696369656e7420616c6c6f60448201526477616e636560d81b60648201526084015b60405180910390fd5b61038383826109b5565b6001600160a01b03861660009081526005602090815260408083203384529091529020556103b2858585610576565b506001949350505050565b6003546001600160a01b031633146104265760405162461bcd60e51b815260206004820152602660248201527f536861726465756d546f6b656e3a2063616c6c6572206973206e6f74207468656044820152651037bbb732b960d11b6064820152608401610370565b61043082826106fe565b5050565b336000908152600460205260409020548111156104a65760405162461bcd60e51b815260206004820152602a60248201527f536861726465756d546f6b656e3a206275726e20616d6f756e7420657863656560448201526964732062616c616e636560b01b6064820152608401610370565b33600090815260046020526040812080548392906104c59084906109b5565b9250508190555080600260008282546104de91906109b5565b909155505060405181815233907fcc16f5dbb4873280815c1ee09dbd06736cffcc184412cf7a71a0fdb75d397ca59060200160405180910390a260405181815260009033907fddf252ad1be2c89b69c2b068fc378daa952ba7f163c4a11628f55a4df523b3ef9060200160405180910390a350565b6001805461020490610965565b600061056d338484610576565b50600192915050565b6001600160a01b0382166105dc5760405162461bcd60e51b815260206004820152602760248201527f536861726465756d546f6b656e3a207472616e7366657220746f207a65726f206044820152666164647265737360c81b6064820152608401610370565b6001600160a01b0383166000908152600460205260409020548111156106505760405162461bcd60e51b815260206004820152602360248201527f536861726465756d546f6b656e3a20696e73756666696369656e742062616c616044820152626e636560e81b6064820152608401610370565b6001600160a01b038316600090815260046020526040812080548392906106789084906109b5565b90915550506001600160a01b038216600090815260046020526040812080548392906106a59084906109c8565b92505081905550816001600160a01b0316836001600160a01b03167fddf252ad1be2c89b69c2b068fc378daa952ba7f163c4a11628f55a4df523b3ef836040516106f191815260200190565b60405180910390a3505050565b6001600160a01b0382166107605760405162461bcd60e51b815260206004820152602360248201527f536861726465756d546f6b656e3a206d696e7420746f207a65726f206164647260448201526265737360e81b6064820152608401610370565b806002600082825461077291906109c8565b90915550506001600160a01b0382166000908152600460205260408120805483929061079f9084906109c8565b90915550506040518181526001600160a01b038316907f0f6798a560793a54c3bcfe86a93cde1e73087d944c0ea20544137d41213968859060200160405180910390a26040518181526001600160a01b038316906000907fddf252ad1be2c89b69c2b068fc378daa952ba7f163c4a11628f55a4df523b3ef9060200160405180910390a35050565b600060208083528351808285015260005b8181101561085457858101830151858201604001528201610838565b506000604082860101526040601f19601f8301168501019250505092915050565b80356001600160a01b038116811461088c57600080fd5b919050565b600080604083850312156108a457600080fd5b6108ad83610875565b946020939093013593505050565b6000806000606084860312156108d057600080fd5b6108d984610875565b92506108e760208501610875565b9150604084013590509250925092565b60006020828403121561090957600080fd5b5035919050565b60006020828403121561092257600080fd5b61092b82610875565b9392505050565b6000806040838503121561094557600080fd5b61094e83610875565b915061095c60208401610875565b90509250929050565b600181811c9082168061097957607f821691505b60208210810361099957634e487b7160e01b600052602260045260246000fd5b50919050565b634e487b7160e01b600052601160045260246000fd5b818103818111156102ec576102ec61099f565b808201808211156102ec576102ec61099f56fea2646970667358221220d17e7de45d7a6bd4b6d03f870328ce389c0e9cd1295e68ea248cfb76142aa8b264736f6c63430008140033",
  "linkReferences": {},
  "deployedLinkReferences": {}
}